{
  "contractName": "AirDrop",
  "abi": [
    {
      "inputs": [
        {
          "internalType": "address[]",
          "name": "_airdrops",
          "type": "address[]"
        },
        {
          "internalType": "address",
          "name": "_rewardPool",
          "type": "address"
        }
      ],
      "stateMutability": "nonpayable",
      "type": "constructor"
    },
    {
      "anonymous": false,
      "inputs": [
        {
          "indexed": true,
          "internalType": "address",
          "name": "previousOwner",
          "type": "address"
        },
        {
          "indexed": true,
          "internalType": "address",
          "name": "newOwner",
          "type": "address"
        }
      ],
      "name": "OwnershipTransferred",
      "type": "event"
    },
    {
      "anonymous": false,
      "inputs": [
        {
          "indexed": true,
          "internalType": "address",
          "name": "_team",
          "type": "address"
        },
        {
          "indexed": false,
          "internalType": "uint256",
          "name": "_amount",
          "type": "uint256"
        }
      ],
      "name": "airdropWalletDiv",
      "type": "event"
    },
    {
      "anonymous": false,
      "inputs": [
        {
          "indexed": false,
          "internalType": "address",
          "name": "_team",
          "type": "address"
        },
        {
          "indexed": false,
          "internalType": "uint256",
          "name": "_amount",
          "type": "uint256"
        }
      ],
      "name": "rewardClaimed",
      "type": "event"
    },
    {
      "inputs": [
        {
          "internalType": "uint256",
          "name": "",
          "type": "uint256"
        }
      ],
      "name": "AirDropList",
      "outputs": [
        {
          "internalType": "address",
          "name": "",
          "type": "address"
        }
      ],
      "stateMutability": "view",
      "type": "function"
    },
    {
      "inputs": [
        {
          "internalType": "address",
          "name": "",
          "type": "address"
        }
      ],
      "name": "AirDropWallets",
      "outputs": [
        {
          "internalType": "uint256",
          "name": "_balances",
          "type": "uint256"
        },
        {
          "internalType": "uint256",
          "name": "_pendingReward",
          "type": "uint256"
        },
        {
          "internalType": "bool",
          "name": "_isExist",
          "type": "bool"
        }
      ],
      "stateMutability": "view",
      "type": "function"
    },
    {
      "inputs": [],
      "name": "DXB",
      "outputs": [
        {
          "internalType": "contract IERC20",
          "name": "",
          "type": "address"
        }
      ],
      "stateMutability": "view",
      "type": "function"
    },
    {
      "inputs": [],
      "name": "_RewardPool",
      "outputs": [
        {
          "internalType": "address",
          "name": "",
          "type": "address"
        }
      ],
      "stateMutability": "view",
      "type": "function"
    },
    {
      "inputs": [
        {
          "internalType": "address",
          "name": "",
          "type": "address"
        }
      ],
      "name": "auth",
      "outputs": [
        {
          "internalType": "bool",
          "name": "",
          "type": "bool"
        }
      ],
      "stateMutability": "view",
      "type": "function"
    },
    {
      "inputs": [],
      "name": "lockPeriod",
      "outputs": [
        {
          "internalType": "uint256",
          "name": "",
          "type": "uint256"
        }
      ],
      "stateMutability": "view",
      "type": "function"
    },
    {
      "inputs": [],
      "name": "owner",
      "outputs": [
        {
          "internalType": "address",
          "name": "",
          "type": "address"
        }
      ],
      "stateMutability": "view",
      "type": "function"
    },
    {
      "inputs": [],
      "name": "renounceOwnership",
      "outputs": [],
      "stateMutability": "nonpayable",
      "type": "function"
    },
    {
      "inputs": [],
      "name": "startTime",
      "outputs": [
        {
          "internalType": "uint256",
          "name": "",
          "type": "uint256"
        }
      ],
      "stateMutability": "view",
      "type": "function"
    },
    {
      "inputs": [
        {
          "internalType": "address",
          "name": "newOwner",
          "type": "address"
        }
      ],
      "name": "transferOwnership",
      "outputs": [],
      "stateMutability": "nonpayable",
      "type": "function"
    },
    {
      "stateMutability": "payable",
      "type": "receive"
    },
    {
      "inputs": [
        {
          "internalType": "address",
          "name": "_regAuth",
          "type": "address"
        }
      ],
      "name": "setAuth",
      "outputs": [],
      "stateMutability": "nonpayable",
      "type": "function"
    },
    {
      "inputs": [
        {
          "internalType": "contract IERC20",
          "name": "_DXB",
          "type": "address"
        }
      ],
      "name": "updatedDXB",
      "outputs": [],
      "stateMutability": "nonpayable",
      "type": "function"
    },
    {
      "inputs": [
        {
          "internalType": "address",
          "name": "_owner",
          "type": "address"
        },
        {
          "internalType": "address",
          "name": "_AirDropWallet",
          "type": "address"
        },
        {
          "internalType": "uint256",
          "name": "_amount",
          "type": "uint256"
        }
      ],
      "name": "transferFromIAirDrop",
      "outputs": [
        {
          "internalType": "bool",
          "name": "",
          "type": "bool"
        }
      ],
      "stateMutability": "nonpayable",
      "type": "function"
    },
    {
      "inputs": [],
      "name": "getReward",
      "outputs": [
        {
          "internalType": "bool",
          "name": "",
          "type": "bool"
        }
      ],
      "stateMutability": "nonpayable",
      "type": "function"
    },
    {
      "inputs": [],
      "name": "claimDXB",
      "outputs": [
        {
          "internalType": "bool",
          "name": "",
          "type": "bool"
        }
      ],
      "stateMutability": "nonpayable",
      "type": "function"
    },
    {
      "inputs": [
        {
          "internalType": "address",
          "name": "_AirDropWallet",
          "type": "address"
        }
      ],
      "name": "viewAirDropReward",
      "outputs": [
        {
          "internalType": "uint256",
          "name": "",
          "type": "uint256"
        }
      ],
      "stateMutability": "view",
      "type": "function"
    }
  ],
  "bytecode": "0x608060405261a8c0600755426008553480156200001b57600080fd5b5060405162001a0738038062001a07833981810160405260408110156200004157600080fd5b81019080805160405193929190846401000000008211156200006257600080fd5b9083019060208201858111156200007857600080fd5b82518660208202830111640100000000821117156200009657600080fd5b82525081516020918201928201910280838360005b83811015620000c5578181015183820152602001620000ab565b50505050919091016040525060200151915060009050620000e562000254565b600080546001600160a01b0319166001600160a01b0383169081178255604051929350917f8be0079c531659141344cd1fd0a4f28419497f9722a3daafe3b4186f6b6457e0908290a350601e8251111562000187576040805162461bcd60e51b815260206004820152601b60248201527f41697244726f70203a3a206c696d6974656420746f2033302049570000000000604482015290519081900360640190fd5b600580546001600160a01b0319166001600160a01b03831617905560005b82518110156200024b576004838281518110620001be57fe5b60209081029190910181015182546001808201855560009485529284200180546001600160a01b0319166001600160a01b03909216919091179055845190916002918690859081106200020d57fe5b6020908102919091018101516001600160a01b03168252810191909152604001600020600201805460ff1916911515919091179055600101620001a5565b50505062000258565b3390565b61179f80620002686000396000f3fe6080604052600436106100f75760003560e01c80638da5cb5b1161008a578063d50b84aa11610059578063d50b84aa146102fe578063ef50992e14610313578063f2fde38b14610328578063f784ba531461035b576100fe565b80638da5cb5b1461025b578063b02a57d81461028c578063c612c062146102a1578063cd5d2118146102cb576100fe565b80634515d3aa116100c65780634515d3aa146101bb578063715018a6146101fe57806378e979251461021357806388292efe14610228576100fe565b80632b2e05c1146101035780633af8eca8146101385780633d18b9121461016b5780633fd8b02f14610194576100fe565b366100fe57005b600080fd5b34801561010f57600080fd5b506101366004803603602081101561012657600080fd5b50356001600160a01b03166103ae565b005b34801561014457600080fd5b506101366004803603602081101561015b57600080fd5b50356001600160a01b031661042a565b34801561017757600080fd5b50610180610500565b604080519115158252519081900360200190f35b3480156101a057600080fd5b506101a9610949565b60408051918252519081900360200190f35b3480156101c757600080fd5b50610180600480360360608110156101de57600080fd5b506001600160a01b0381358116916020810135909116906040013561094f565b34801561020a57600080fd5b50610136610c90565b34801561021f57600080fd5b506101a9610d32565b34801561023457600080fd5b506101a96004803603602081101561024b57600080fd5b50356001600160a01b0316610d38565b34801561026757600080fd5b50610270610ebb565b604080516001600160a01b039092168252519081900360200190f35b34801561029857600080fd5b50610270610eca565b3480156102ad57600080fd5b50610270600480360360208110156102c457600080fd5b5035610ed9565b3480156102d757600080fd5b50610180600480360360208110156102ee57600080fd5b50356001600160a01b0316610f00565b34801561030a57600080fd5b50610180610f15565b34801561031f57600080fd5b5061027061111c565b34801561033457600080fd5b506101366004803603602081101561034b57600080fd5b50356001600160a01b031661112b565b34801561036757600080fd5b5061038e6004803603602081101561037e57600080fd5b50356001600160a01b0316611223565b604080519384526020840192909252151582820152519081900360600190f35b6103b6611246565b6000546001600160a01b03908116911614610406576040805162461bcd60e51b81526020600482018190526024820152600080516020611711833981519152604482015290519081900360640190fd5b6001600160a01b03166000908152600360205260409020805460ff19166001179055565b610432611246565b6000546001600160a01b03908116911614610482576040805162461bcd60e51b81526020600482018190526024820152600080516020611711833981519152604482015290519081900360640190fd5b6001600160a01b038116158015906104a357506006546001600160a01b0316155b6104de5760405162461bcd60e51b81526004018080602001828103825260328152602001806116916032913960400191505060405180910390fd5b600680546001600160a01b0319166001600160a01b0392909216919091179055565b60006002600061050e611246565b6001600160a01b0316815260208101919091526040016000206002015460ff1680610558575061053c610ebb565b6001600160a01b031661054d611246565b6001600160a01b0316145b6105935760405162461bcd60e51b815260040180806020018281038252602b815260200180611666602b913960400191505060405180910390fd5b600554604080516311eaa9f960e01b815230600482015290516001600160a01b03909216916311eaa9f991602480820192602092909190829003018186803b1580156105de57600080fd5b505afa1580156105f2573d6000803e3d6000fd5b505050506040513d602081101561060857600080fd5b505115801561063d57506002600061061e611246565b6001600160a01b03168152602081019190915260400160002060010154155b1561064a57506000610946565b60055460408051631910b78b60e31b8152905130928331926001600160a01b039091169163c885bc58916004808201926020929091908290030181600087803b15801561069657600080fd5b505af11580156106aa573d6000803e3d6000fd5b505050506040513d60208110156106c057600080fd5b50600090506106d96001600160a01b038416318361124a565b905080156107ee5760006106ec82611295565b905060005b6004548110156107eb57600061074c64e8d4a51000610746600260006004878154811061071a57fe5b60009182526020808320909101546001600160a01b031683528201929092526040019020548690611330565b90611389565b90506107a261076382670de0b6b3a7640000611389565b600260006004868154811061077457fe5b60009182526020808320909101546001600160a01b03168352820192909252604001902060010154906113cb565b60026000600485815481106107b357fe5b60009182526020808320909101546001600160a01b0316835282019290925260400190206001908101919091559190910190506106f1565b50505b6000600260006107fc611246565b6001600160a01b03166001600160a01b031681526020019081526020016000206001015411801561084d5750610830610ebb565b6001600160a01b0316610841611246565b6001600160a01b031614155b1561093e57600060026000610860611246565b6001600160a01b03166001600160a01b03168152602001908152602001600020600101549050600060026000610894611246565b6001600160a01b031681526020810191909152604001600020600101556108b9611246565b6001600160a01b03166108fc829081150290604051600060405180830381858888f193505050501580156108f1573d6000803e3d6000fd5b507f83b78188b13346b2ffb484da70d42ee27de7fbf9f2bd8045269e10ed643ccd7661091b611246565b604080516001600160a01b039092168252602082018490528051918290030190a1505b600193505050505b90565b60075481565b60006003600061095d611246565b6001600160a01b0316815260208101919091526040016000205460ff166109c3576040805162461bcd60e51b8152602060048201526015602482015274082d2e488e4dee040747440dedcd8f24040c2eae8d605b1b604482015290519081900360640190fd5b6001600160a01b0383166000908152600260208190526040909120015460ff16610a34576040805162461bcd60e51b815260206004820152601c60248201527f41697244726f70203a3a20696e76616c6964205f4941697244726f7000000000604482015290519081900360640190fd5b600654604080516370a0823160e01b81526001600160a01b0387811660048301529151859392909216916370a0823191602480820192602092909190829003018186803b158015610a8457600080fd5b505afa158015610a98573d6000803e3d6000fd5b505050506040513d6020811015610aae57600080fd5b50511015610b03576040805162461bcd60e51b815260206004820152601f60248201527f41697244726f70203a3a20696e73756666696369656e742062616c616e636500604482015290519081900360640190fd5b60065460408051636eb1769f60e11b81526001600160a01b03878116600483015230602483015291518593929092169163dd62ed3e91604480820192602092909190829003018186803b158015610b5957600080fd5b505afa158015610b6d573d6000803e3d6000fd5b505050506040513d6020811015610b8357600080fd5b50511015610bc25760405162461bcd60e51b815260040180806020018281038252602181526020018061161f6021913960400191505060405180910390fd5b600654604080516323b872dd60e01b81526001600160a01b03878116600483015230602483015260448201869052915191909216916323b872dd9160648083019260209291908290030181600087803b158015610c1e57600080fd5b505af1158015610c32573d6000803e3d6000fd5b505050506040513d6020811015610c4857600080fd5b50506001600160a01b038316600090815260026020526040902054610c6d90836113cb565b6001600160a01b0384166000908152600260205260409020555060019392505050565b610c98611246565b6000546001600160a01b03908116911614610ce8576040805162461bcd60e51b81526020600482018190526024820152600080516020611711833981519152604482015290519081900360640190fd5b600080546040516001600160a01b03909116907f8be0079c531659141344cd1fd0a4f28419497f9722a3daafe3b4186f6b6457e0908390a3600080546001600160a01b0319169055565b60085481565b600554604080516311eaa9f960e01b8152306004820152905160009283926001600160a01b03909116916311eaa9f991602480820192602092909190829003018186803b158015610d8857600080fd5b505afa158015610d9c573d6000803e3d6000fd5b505050506040513d6020811015610db257600080fd5b5051600654604080516370a0823160e01b815230600482015290519293506001600160a01b03909116916370a0823191602480820192602092909190829003018186803b158015610e0257600080fd5b505afa158015610e16573d6000803e3d6000fd5b505050506040513d6020811015610e2c57600080fd5b5051610e3c576000915050610eb6565b6000610e4782611295565b6001600160a01b03851660009081526002602052604081205491925090610e8690670de0b6b3a7640000906107469064e8d4a510009082908790611330565b6001600160a01b038616600090815260026020526040902060010154909150610eb09082906113cb565b93505050505b919050565b6000546001600160a01b031690565b6006546001600160a01b031681565b60048181548110610ee657fe5b6000918252602090912001546001600160a01b0316905081565b60036020526000908152604090205460ff1681565b600060026000610f23611246565b6001600160a01b0316815260208101919091526040016000206002015460ff16610f7e5760405162461bcd60e51b815260040180806020018281038252602d8152602001806116c3602d913960400191505060405180910390fd5b60085415801590610fa4575042610fa26007546008546113cb90919063ffffffff16565b105b610fdf5760405162461bcd60e51b81526004018080602001828103825260308152602001806115ef6030913960400191505060405180910390fd5b60026000610feb611246565b6001600160a01b03908116825260208083019390935260409182016000205460065483516370a0823160e01b8152306004820152935191949216926370a08231926024808301939192829003018186803b15801561104857600080fd5b505afa15801561105c573d6000803e3d6000fd5b505050506040513d602081101561107257600080fd5b505110156110b15760405162461bcd60e51b81526004018080602001828103825260398152602001806117316039913960400191505060405180910390fd5b6000600260006110bf611246565b6001600160a01b03168152602081019190915260400160009081205491506002816110e8611246565b6001600160a01b0316815260208101919091526040016000205561111361110d611246565b82611425565b50600191505090565b6005546001600160a01b031681565b611133611246565b6000546001600160a01b03908116911614611183576040805162461bcd60e51b81526020600482018190526024820152600080516020611711833981519152604482015290519081900360640190fd5b6001600160a01b0381166111c85760405162461bcd60e51b81526004018080602001828103825260268152602001806116406026913960400191505060405180910390fd5b600080546040516001600160a01b03808516939216917f8be0079c531659141344cd1fd0a4f28419497f9722a3daafe3b4186f6b6457e091a3600080546001600160a01b0319166001600160a01b0392909216919091179055565b600260208190526000918252604090912080546001820154919092015460ff1683565b3390565b600061128c83836040518060400160405280601e81526020017f536166654d6174683a207375627472616374696f6e206f766572666c6f7700008152506114f2565b90505b92915050565b600654604080516370a0823160e01b8152306004820152905160009261128f926001600160a01b03909116916370a0823191602480820192602092909190829003018186803b1580156112e757600080fd5b505afa1580156112fb573d6000803e3d6000fd5b505050506040513d602081101561131157600080fd5b5051610746670de0b6b3a764000061132e8664e8d4a51000611330565b905b60008261133f5750600061128f565b8282028284828161134c57fe5b041461128c5760405162461bcd60e51b81526004018080602001828103825260218152602001806116f06021913960400191505060405180910390fd5b600061128c83836040518060400160405280601a81526020017f536166654d6174683a206469766973696f6e206279207a65726f000000000000815250611589565b60008282018381101561128c576040805162461bcd60e51b815260206004820152601b60248201527f536166654d6174683a206164646974696f6e206f766572666c6f770000000000604482015290519081900360640190fd5b6006546040805163a9059cbb60e01b81526001600160a01b038581166004830152602482018590529151600093929092169163a9059cbb9160448082019260209290919082900301818787803b15801561147e57600080fd5b505af1158015611492573d6000803e3d6000fd5b505050506040513d60208110156114a857600080fd5b50506040805183815290516001600160a01b038516917f77f3406a89cc8388b33e3c864876d6f1fd8fa33eda05cccb4f6f2cafe951457c919081900360200190a250600192915050565b600081848411156115815760405162461bcd60e51b81526004018080602001828103825283818151815260200191508051906020019080838360005b8381101561154657818101518382015260200161152e565b50505050905090810190601f1680156115735780820380516001836020036101000a031916815260200191505b509250505060405180910390fd5b505050900390565b600081836115d85760405162461bcd60e51b815260206004820181815283516024840152835190928392604490910191908501908083836000831561154657818101518382015260200161152e565b5060008385816115e457fe5b049594505050505056fe4941697244726f70203a3a20636c61696d445842203a20526571756972657320313830206461797320746f207061737341697244726f70203a3a20696e73756666696369656e7420616c6c6f77616e63654f776e61626c653a206e6577206f776e657220697320746865207a65726f20616464726573734941697244726f70203a3a20676574526577617264203a20496e76616c6964204957206f72206f6e77657241697244726f70203a3a2075706461746564445842203a20445842206164647265737320697320616c7265616479207365744941697244726f70203a3a20636c61696d445842203a20696e76616c69642061697264726f702077616c6c6574536166654d6174683a206d756c7469706c69636174696f6e206f766572666c6f774f776e61626c653a2063616c6c6572206973206e6f7420746865206f776e65724941697244726f70203a3a20636c61696d445842203a20696e73756666696369656e742062616c616e636520746f2064697374726962757465a2646970667358221220344494bcedcfa77483d08fddcf53ff12c9b92ccd275868ed70278fac40ae303164736f6c634300060c0033",
  "immutableReferences": {},
  "source": "pragma solidity 0.6.12;\n//SPDX-License-Identifier: UNLICENSED\n\nlibrary SafeMath {\n    /**\n     * @dev Returns the addition of two unsigned integers, reverting on\n     * overflow.\n     *\n     * Counterpart to Solidity's `+` operator.\n     *\n     * Requirements:\n     *\n     * - Addition cannot overflow.\n     */\n    function add(uint256 a, uint256 b) internal pure returns (uint256) {\n        uint256 c = a + b;\n        require(c >= a, \"SafeMath: addition overflow\");\n\n        return c;\n    }\n\n    /**\n     * @dev Returns the subtraction of two unsigned integers, reverting on\n     * overflow (when the result is negative).\n     *\n     * Counterpart to Solidity's `-` operator.\n     *\n     * Requirements:\n     *\n     * - Subtraction cannot overflow.\n     */\n    function sub(uint256 a, uint256 b) internal pure returns (uint256) {\n        return sub(a, b, \"SafeMath: subtraction overflow\");\n    }\n\n    /**\n     * @dev Returns the subtraction of two unsigned integers, reverting with custom message on\n     * overflow (when the result is negative).\n     *\n     * Counterpart to Solidity's `-` operator.\n     *\n     * Requirements:\n     *\n     * - Subtraction cannot overflow.\n     */\n    function sub(uint256 a, uint256 b, string memory errorMessage) internal pure returns (uint256) {\n        require(b <= a, errorMessage);\n        uint256 c = a - b;\n\n        return c;\n    }\n\n    /**\n     * @dev Returns the multiplication of two unsigned integers, reverting on\n     * overflow.\n     *\n     * Counterpart to Solidity's `*` operator.\n     *\n     * Requirements:\n     *\n     * - Multiplication cannot overflow.\n     */\n    function mul(uint256 a, uint256 b) internal pure returns (uint256) {\n        // Gas optimization: this is cheaper than requiring 'a' not being zero, but the\n        // benefit is lost if 'b' is also tested.\n        // See: https://github.com/OpenZeppelin/openzeppelin-contracts/pull/522\n        if (a == 0) {\n            return 0;\n        }\n\n        uint256 c = a * b;\n        require(c / a == b, \"SafeMath: multiplication overflow\");\n\n        return c;\n    }\n\n    /**\n     * @dev Returns the integer division of two unsigned integers. Reverts on\n     * division by zero. The result is rounded towards zero.\n     *\n     * Counterpart to Solidity's `/` operator. Note: this function uses a\n     * `revert` opcode (which leaves remaining gas untouched) while Solidity\n     * uses an invalid opcode to revert (consuming all remaining gas).\n     *\n     * Requirements:\n     *\n     * - The divisor cannot be zero.\n     */\n    function div(uint256 a, uint256 b) internal pure returns (uint256) {\n        return div(a, b, \"SafeMath: division by zero\");\n    }\n\n    /**\n     * @dev Returns the integer division of two unsigned integers. Reverts with custom message on\n     * division by zero. The result is rounded towards zero.\n     *\n     * Counterpart to Solidity's `/` operator. Note: this function uses a\n     * `revert` opcode (which leaves remaining gas untouched) while Solidity\n     * uses an invalid opcode to revert (consuming all remaining gas).\n     *\n     * Requirements:\n     *\n     * - The divisor cannot be zero.\n     */\n    function div(uint256 a, uint256 b, string memory errorMessage) internal pure returns (uint256) {\n        require(b > 0, errorMessage);\n        uint256 c = a / b;\n        // assert(a == b * c + a % b); // There is no case in which this doesn't hold\n\n        return c;\n    }\n\n    /**\n     * @dev Returns the remainder of dividing two unsigned integers. (unsigned integer modulo),\n     * Reverts when dividing by zero.\n     *\n     * Counterpart to Solidity's `%` operator. This function uses a `revert`\n     * opcode (which leaves remaining gas untouched) while Solidity uses an\n     * invalid opcode to revert (consuming all remaining gas).\n     *\n     * Requirements:\n     *\n     * - The divisor cannot be zero.\n     */\n    function mod(uint256 a, uint256 b) internal pure returns (uint256) {\n        return mod(a, b, \"SafeMath: modulo by zero\");\n    }\n\n    /**\n     * @dev Returns the remainder of dividing two unsigned integers. (unsigned integer modulo),\n     * Reverts with custom message when dividing by zero.\n     *\n     * Counterpart to Solidity's `%` operator. This function uses a `revert`\n     * opcode (which leaves remaining gas untouched) while Solidity uses an\n     * invalid opcode to revert (consuming all remaining gas).\n     *\n     * Requirements:\n     *\n     * - The divisor cannot be zero.\n     */\n    function mod(uint256 a, uint256 b, string memory errorMessage) internal pure returns (uint256) {\n        require(b != 0, errorMessage);\n        return a % b;\n    }\n}\n\nabstract contract Context {\n    function _msgSender() internal view virtual returns (address) {\n        return msg.sender;\n    }\n\n    function _msgData() internal view virtual returns (bytes memory) {\n        this; // silence state mutability warning without generating bytecode - see https://github.com/ethereum/solidity/issues/2691\n        return msg.data;\n    }\n}\n\ncontract Ownable is Context {\n    address private _owner;\n    address private _previousOwner;\n\n    event OwnershipTransferred(address indexed previousOwner, address indexed newOwner);\n\n    /**\n     * @dev Initializes the contract setting the deployer as the initial owner.\n     */\n    constructor () internal {\n        address msgSender = _msgSender();\n        _owner = msgSender;\n        emit OwnershipTransferred(address(0), msgSender);\n    }\n\n    /**\n     * @dev Returns the address of the current owner.\n     */\n    function owner() public view returns (address) {\n        return _owner;\n    }\n\n    /**\n     * @dev Throws if called by any account other than the owner.\n     */\n    modifier onlyOwner() {\n        require(_owner == _msgSender(), \"Ownable: caller is not the owner\");\n        _;\n    }\n\n     /**\n     * @dev Leaves the contract without owner. It will not be possible to call\n     * `onlyOwner` functions anymore. Can only be called by the current owner.\n     *\n     * NOTE: Renouncing ownership will leave the contract without an owner,\n     * thereby removing any functionality that is only available to the owner.\n     */\n    function renounceOwnership() public virtual onlyOwner {\n        emit OwnershipTransferred(_owner, address(0));\n        _owner = address(0);\n    }\n\n    /**\n     * @dev Transfers ownership of the contract to a new account (`newOwner`).\n     * Can only be called by the current owner.\n     */\n    function transferOwnership(address newOwner) public virtual onlyOwner {\n        require(newOwner != address(0), \"Ownable: new owner is the zero address\");\n        emit OwnershipTransferred(_owner, newOwner);\n        _owner = newOwner;\n    }\n}\n\ninterface IERC20 {\n\n    function totalSupply() external view returns (uint256);\n\n    /**\n     * @dev Returns the amount of tokens owned by `account`.\n     */\n    function balanceOf(address account) external view returns (uint256);\n\n    /**\n     * @dev Moves `amount` tokens from the caller's account to `recipient`.\n     *\n     * Returns a boolean value indicating whether the operation succeeded.\n     *\n     * Emits a {Transfer} event.\n     */\n    function transfer(address recipient, uint256 amount) external returns (bool);\n\n    /**\n     * @dev Returns the remaining number of tokens that `spender` will be\n     * allowed to spend on behalf of `owner` through {transferFrom}. This is\n     * zero by default.\n     *\n     * This value changes when {approve} or {transferFrom} are called.\n     */\n    function allowance(address owner, address spender) external view returns (uint256);\n\n    /**\n     * @dev Sets `amount` as the allowance of `spender` over the caller's tokens.\n     *\n     * Returns a boolean value indicating whether the operation succeeded.\n     *\n     * IMPORTANT: Beware that changing an allowance with this method brings the risk\n     * that someone may use both the old and the new allowance by unfortunate\n     * transaction ordering. One possible solution to mitigate this race\n     * condition is to first reduce the spender's allowance to 0 and set the\n     * desired value afterwards:\n     * https://github.com/ethereum/EIPs/issues/20#issuecomment-263524729\n     *\n     * Emits an {Approval} event.\n     */\n    function approve(address spender, uint256 amount) external returns (bool);\n\n    /**\n     * @dev Moves `amount` tokens from `sender` to `recipient` using the\n     * allowance mechanism. `amount` is then deducted from the caller's\n     * allowance.\n     *\n     * Returns a boolean value indicating whether the operation succeeded.\n     *\n     * Emits a {Transfer} event.\n     */\n    function transferFrom(address sender, address recipient, uint256 amount) external returns (bool);\n    \n    function moveBNBToWallet() external returns (bool);\n    \n    function balanceOfBNB( address owner) external view returns (uint);\n    \n    function getOwnerBNBValue() external view returns (uint);\n\n    /**\n     * @dev Emitted when `value` tokens are moved from one account (`from`) to\n     * another (`to`).\n     *\n     * Note that `value` may be zero.\n     */\n    event Transfer(address indexed from, address indexed to, uint256 value);\n\n    /**\n     * @dev Emitted when the allowance of a `spender` for an `owner` is set by\n     * a call to {approve}. `value` is the new allowance.\n     */\n    event Approval(address indexed owner, address indexed spender, uint256 value);\n}\n\ninterface RewardPool {\n    function withdrawReward() external returns (uint);\n    function viewClaimReward( address _holder) external view returns (uint);\n}\n\ncontract AirDrop is Ownable {\n    using SafeMath for uint;\n    \n    event rewardClaimed( address _team, uint _amount);\n    event airdropWalletDiv( address indexed _team, uint _amount);\n    \n    struct AirdropStruct {\n        uint _balances;\n        uint _pendingReward;\n        bool _isExist;\n    }\n    \n    mapping(address => AirdropStruct) public AirDropWallets;\n    mapping(address => bool) public auth;\n    \n    address[] public AirDropList;\n    address public _RewardPool;\n    IERC20 public DXB;\n    \n    uint public lockPeriod = 43200;\n    uint public startTime = block.timestamp;\n    \n    constructor( address[] memory _airdrops, address _rewardPool)  public {\n        require(_airdrops.length <= 30, \"AirDrop :: limited to 30 IW\");\n        _RewardPool = _rewardPool;\n        \n        \n        for(uint i=0; i< _airdrops.length;i++){\n            AirDropList.push(_airdrops[i]);\n            AirDropWallets[_airdrops[i]]._isExist = true;\n        }\n    }\n    \n    modifier onlyAuth(){\n        require(auth[_msgSender()], \"AirDrop :: only  auth\");\n        _;\n    }\n    \n    receive() external payable {\n    }\n    \n    /** \n     * @dev Calls setAuth() function to set authentication to address.\n     * @param _regAuth auth address.\n     */\n    function setAuth( address _regAuth) public onlyOwner { auth[_regAuth] = true; }\n    \n    /** \n     * @dev Calls updatedDXB() function to update DXB address.\n     * @param _DXB DXB token address.\n     */\n    function updatedDXB( IERC20 _DXB) public onlyOwner {\n        require((address(_DXB) != address(0)) && ( address(DXB) == address(0)), \"AirDrop :: updatedDXB : DXB address is already set\");\n        DXB = _DXB;\n    }\n    \n    /** \n     * @dev Calls transferFromIAirDrop() function to receive tokens send for airdrop.\n     * @param _owner DXB address.\n     * @param _AirDropWallet airdrop address.\n     * @param _amount token to send.\n     * @return bool \n     */\n    function transferFromIAirDrop( address _owner, address _AirDropWallet, uint _amount) public onlyAuth returns (bool) {\n        require(AirDropWallets[_AirDropWallet]._isExist, \"AirDrop :: invalid _IAirDrop\");\n        require(DXB.balanceOf(_owner) >= _amount, \"AirDrop :: insufficient balance\");\n        require(DXB.allowance(_owner, address(this)) >= _amount, \"AirDrop :: insufficient allowance\");\n        \n        DXB.transferFrom(_owner, address(this), _amount);\n        AirDropWallets[_AirDropWallet]._balances = AirDropWallets[_AirDropWallet]._balances.add(_amount);\n        \n        return true;\n    }\n    \n    /** \n     * @dev Calls getReward() function to receive rewards from reward pool.\n     * @return bool \n     */\n    function getReward() public returns (bool) {\n        require((AirDropWallets[_msgSender()]._isExist) || (_msgSender() == owner()), \"IAirDrop :: getReward : Invalid IW or onwer\");\n        if(( RewardPool(_RewardPool).viewClaimReward(address(this)) == 0) && (AirDropWallets[_msgSender()]._pendingReward == 0)) { return false; }\n        \n        address _contract = address(this);\n        \n        uint _bfBalance = _contract.balance;\n        \n        RewardPool(_RewardPool).withdrawReward();\n        \n        uint _newBalance = _contract.balance.sub(_bfBalance);\n        \n        if(_newBalance > 0){\n            uint currentSharePerBlok = getBNBValuePerShare(_newBalance);\n            for(uint i=0;i<AirDropList.length;i++){\n                uint rewardBNB = currentSharePerBlok.mul(AirDropWallets[AirDropList[i]]._balances).div(1e12);\n                AirDropWallets[AirDropList[i]]._pendingReward = AirDropWallets[AirDropList[i]]._pendingReward.add(rewardBNB.div(1e18));\n            }\n        }\n        \n        if((AirDropWallets[_msgSender()]._pendingReward > 0) && (_msgSender() != owner())){\n            uint _reward = AirDropWallets[_msgSender()]._pendingReward;\n            AirDropWallets[_msgSender()]._pendingReward = 0;\n            payable(_msgSender()).transfer(_reward);\n            emit rewardClaimed( _msgSender(), _reward);\n        }\n        \n        return true;\n    }\n    \n    /** \n     * @dev Calls distributeWallet() function to distribute tokens to others.\n     * @return bool \n    */\n    function claimDXB() public returns (bool) {\n        require((AirDropWallets[_msgSender()]._isExist), \"IAirDrop :: claimDXB : invalid airdrop wallet\");\n        require((startTime != 0) && (startTime.add(lockPeriod) < block.timestamp), \"IAirDrop :: claimDXB : Requires 180 days to pass\");\n        require(IERC20(DXB).balanceOf(address(this)) >= AirDropWallets[_msgSender()]._balances, \"IAirDrop :: claimDXB : insufficient balance to distribute\");\n        \n        uint _bal = AirDropWallets[_msgSender()]._balances;\n        AirDropWallets[_msgSender()]._balances = 0;\n        _safeTransfer(_msgSender(), _bal);\n        \n        return true;\n    }\n    \n    /** \n     * @dev Calls viewAirDropReward() function to view rewards.\n     * @param _AirDropWallet airdrop wallet address to view rewards.\n     * @return uint \n     */\n    function viewAirDropReward( address _AirDropWallet) public view returns (uint) {\n        uint _contractReward =  RewardPool(_RewardPool).viewClaimReward(address(this));\n        if((DXB.balanceOf(address(this)) == 0)) { return 0;}\n        uint currentSharePerBlok = getBNBValuePerShare(_contractReward);\n        uint rewardBNB = (currentSharePerBlok.mul(AirDropWallets[_AirDropWallet]._balances).div(1e12)).div(1e18);\n        rewardBNB = rewardBNB.add(AirDropWallets[_AirDropWallet]._pendingReward);\n        \n        return rewardBNB;\n    }\n    \n    /** \n     * @dev Calls getBNBValuePerShare() function to view tokens per share.\n     * @param amount BNB rewards.\n     * @return uint rewards per share\n     */\n    function getBNBValuePerShare( uint amount) private view returns (uint) {\n        return (amount.mul(1e12)).mul(1e18).div(DXB.balanceOf(address(this)));\n    }\n    \n    /** \n     * @dev Calls _safeTransfer() function to send bnb to airdrop wallets.\n     * @param _sender sender address.\n     * @param _amount BNB to send.\n     * @return uint rewards per share\n     */\n    function _safeTransfer( address _sender, uint _amount) private returns (bool) {\n        DXB.transfer( _sender, _amount);\n        emit airdropWalletDiv( _sender, _amount);\n        return true;\n    }\n    \n}",
  "sourcePath": "/home/devel-mohan/dxB/contracts/familyAndFriends.sol",
  "compiler": {
    "name": "solc",
    "version": "0.6.12+commit.27d51765.Emscripten.clang"
  },
  "schemaVersion": "3.3.4",
  "updatedAt": "2021-07-23T09:40:23.162Z",
  "devdoc": {
    "kind": "dev",
    "methods": {
      "claimDXB()": {
        "details": "Calls distributeWallet() function to distribute tokens to others.",
        "returns": {
          "_0": "bool "
        }
      },
      "getReward()": {
        "details": "Calls getReward() function to receive rewards from reward pool.",
        "returns": {
          "_0": "bool "
        }
      },
      "owner()": {
        "details": "Returns the address of the current owner."
      },
      "renounceOwnership()": {
        "details": "Leaves the contract without owner. It will not be possible to call `onlyOwner` functions anymore. Can only be called by the current owner. NOTE: Renouncing ownership will leave the contract without an owner, thereby removing any functionality that is only available to the owner."
      },
      "setAuth(address)": {
        "details": "Calls setAuth() function to set authentication to address.",
        "params": {
          "_regAuth": "auth address."
        }
      },
      "transferFromIAirDrop(address,address,uint256)": {
        "details": "Calls transferFromIAirDrop() function to receive tokens send for airdrop.",
        "params": {
          "_AirDropWallet": "airdrop address.",
          "_amount": "token to send.",
          "_owner": "DXB address."
        },
        "returns": {
          "_0": "bool "
        }
      },
      "transferOwnership(address)": {
        "details": "Transfers ownership of the contract to a new account (`newOwner`). Can only be called by the current owner."
      },
      "updatedDXB(address)": {
        "details": "Calls updatedDXB() function to update DXB address.",
        "params": {
          "_DXB": "DXB token address."
        }
      },
      "viewAirDropReward(address)": {
        "details": "Calls viewAirDropReward() function to view rewards.",
        "params": {
          "_AirDropWallet": "airdrop wallet address to view rewards."
        },
        "returns": {
          "_0": "uint "
        }
      }
    },
    "version": 1
  },
  "userdoc": {
    "kind": "user",
    "methods": {},
    "version": 1
  }
}