{
  "contractName": "RewardPool",
  "abi": [
    {
      "anonymous": false,
      "inputs": [
        {
          "indexed": true,
          "internalType": "address",
          "name": "previousOwner",
          "type": "address"
        },
        {
          "indexed": true,
          "internalType": "address",
          "name": "newOwner",
          "type": "address"
        }
      ],
      "name": "OwnershipTransferred",
      "type": "event"
    },
    {
      "anonymous": false,
      "inputs": [
        {
          "indexed": true,
          "internalType": "address",
          "name": "_holder",
          "type": "address"
        },
        {
          "indexed": false,
          "internalType": "uint256",
          "name": "_amount",
          "type": "uint256"
        },
        {
          "indexed": false,
          "internalType": "uint256",
          "name": "_time",
          "type": "uint256"
        }
      ],
      "name": "rewardWithdrawal",
      "type": "event"
    },
    {
      "anonymous": false,
      "inputs": [
        {
          "indexed": false,
          "internalType": "uint256",
          "name": "_amount",
          "type": "uint256"
        },
        {
          "indexed": false,
          "internalType": "uint256",
          "name": "_time",
          "type": "uint256"
        }
      ],
      "name": "rewardsReceived",
      "type": "event"
    },
    {
      "inputs": [],
      "name": "DXB",
      "outputs": [
        {
          "internalType": "contract IBEP20",
          "name": "",
          "type": "address"
        }
      ],
      "stateMutability": "view",
      "type": "function"
    },
    {
      "inputs": [
        {
          "internalType": "address",
          "name": "",
          "type": "address"
        }
      ],
      "name": "authenticate",
      "outputs": [
        {
          "internalType": "bool",
          "name": "",
          "type": "bool"
        }
      ],
      "stateMutability": "view",
      "type": "function"
    },
    {
      "inputs": [],
      "name": "currCycle",
      "outputs": [
        {
          "internalType": "uint256",
          "name": "",
          "type": "uint256"
        }
      ],
      "stateMutability": "view",
      "type": "function"
    },
    {
      "inputs": [
        {
          "internalType": "uint256",
          "name": "",
          "type": "uint256"
        }
      ],
      "name": "cycles",
      "outputs": [
        {
          "internalType": "uint256",
          "name": "_cycleCollected",
          "type": "uint256"
        },
        {
          "internalType": "uint256",
          "name": "_currentTotalSupply",
          "type": "uint256"
        },
        {
          "internalType": "uint256",
          "name": "_cycleEndedTimeStamp",
          "type": "uint256"
        },
        {
          "internalType": "bool",
          "name": "_isCycleActive",
          "type": "bool"
        }
      ],
      "stateMutability": "view",
      "type": "function"
    },
    {
      "inputs": [],
      "name": "emergencyWithdrawalPeriod",
      "outputs": [
        {
          "internalType": "uint256",
          "name": "",
          "type": "uint256"
        }
      ],
      "stateMutability": "view",
      "type": "function"
    },
    {
      "inputs": [],
      "name": "estimatedLoop",
      "outputs": [
        {
          "internalType": "uint256",
          "name": "",
          "type": "uint256"
        }
      ],
      "stateMutability": "view",
      "type": "function"
    },
    {
      "inputs": [
        {
          "internalType": "address",
          "name": "",
          "type": "address"
        }
      ],
      "name": "holderWallet",
      "outputs": [
        {
          "internalType": "uint256",
          "name": "_currentDXBBalance",
          "type": "uint256"
        },
        {
          "internalType": "uint256",
          "name": "_timestamp",
          "type": "uint256"
        },
        {
          "internalType": "uint256",
          "name": "lastUpdatedCycle",
          "type": "uint256"
        },
        {
          "internalType": "uint256",
          "name": "_lastestCycle",
          "type": "uint256"
        },
        {
          "internalType": "uint256",
          "name": "_lastWithdrawnCycle",
          "type": "uint256"
        }
      ],
      "stateMutability": "view",
      "type": "function"
    },
    {
      "inputs": [],
      "name": "maxCycleReward",
      "outputs": [
        {
          "internalType": "uint256",
          "name": "",
          "type": "uint256"
        }
      ],
      "stateMutability": "view",
      "type": "function"
    },
    {
      "inputs": [],
      "name": "owner",
      "outputs": [
        {
          "internalType": "address",
          "name": "",
          "type": "address"
        }
      ],
      "stateMutability": "view",
      "type": "function"
    },
    {
      "inputs": [],
      "name": "previousBalance",
      "outputs": [
        {
          "internalType": "uint256",
          "name": "",
          "type": "uint256"
        }
      ],
      "stateMutability": "view",
      "type": "function"
    },
    {
      "inputs": [],
      "name": "renounceOwnership",
      "outputs": [],
      "stateMutability": "nonpayable",
      "type": "function"
    },
    {
      "inputs": [
        {
          "internalType": "address",
          "name": "newOwner",
          "type": "address"
        }
      ],
      "name": "transferOwnership",
      "outputs": [],
      "stateMutability": "nonpayable",
      "type": "function"
    },
    {
      "stateMutability": "payable",
      "type": "receive"
    },
    {
      "inputs": [
        {
          "internalType": "contract IBEP20",
          "name": "_DXB",
          "type": "address"
        }
      ],
      "name": "updatedDXB",
      "outputs": [
        {
          "internalType": "bool",
          "name": "",
          "type": "bool"
        }
      ],
      "stateMutability": "nonpayable",
      "type": "function"
    },
    {
      "inputs": [
        {
          "internalType": "uint256",
          "name": "_eLoop",
          "type": "uint256"
        }
      ],
      "name": "updateEstimatedLoop",
      "outputs": [
        {
          "internalType": "bool",
          "name": "",
          "type": "bool"
        }
      ],
      "stateMutability": "nonpayable",
      "type": "function"
    },
    {
      "inputs": [
        {
          "internalType": "uint256",
          "name": "_maxCycleReward",
          "type": "uint256"
        }
      ],
      "name": "updateMaxCycleReward",
      "outputs": [
        {
          "internalType": "bool",
          "name": "",
          "type": "bool"
        }
      ],
      "stateMutability": "nonpayable",
      "type": "function"
    },
    {
      "inputs": [
        {
          "internalType": "address",
          "name": "_auth",
          "type": "address"
        },
        {
          "internalType": "bool",
          "name": "_status",
          "type": "bool"
        }
      ],
      "name": "updateAuth",
      "outputs": [],
      "stateMutability": "nonpayable",
      "type": "function"
    },
    {
      "inputs": [
        {
          "internalType": "uint256",
          "name": "_amount",
          "type": "uint256"
        }
      ],
      "name": "updatePool",
      "outputs": [
        {
          "internalType": "bool",
          "name": "",
          "type": "bool"
        }
      ],
      "stateMutability": "nonpayable",
      "type": "function"
    },
    {
      "inputs": [
        {
          "internalType": "uint256",
          "name": "_currentPerShare",
          "type": "uint256"
        },
        {
          "internalType": "uint256",
          "name": "_cycleDXBBalance",
          "type": "uint256"
        }
      ],
      "name": "_calculateReward",
      "outputs": [
        {
          "internalType": "uint256",
          "name": "",
          "type": "uint256"
        }
      ],
      "stateMutability": "pure",
      "type": "function"
    },
    {
      "inputs": [
        {
          "internalType": "uint256",
          "name": "cycle",
          "type": "uint256"
        }
      ],
      "name": "_getSharePerValue",
      "outputs": [
        {
          "internalType": "uint256",
          "name": "",
          "type": "uint256"
        }
      ],
      "stateMutability": "view",
      "type": "function"
    },
    {
      "inputs": [
        {
          "internalType": "address",
          "name": "_holder",
          "type": "address"
        }
      ],
      "name": "viewClaimReward",
      "outputs": [
        {
          "internalType": "uint256",
          "name": "",
          "type": "uint256"
        }
      ],
      "stateMutability": "view",
      "type": "function"
    },
    {
      "inputs": [],
      "name": "withdrawReward",
      "outputs": [
        {
          "internalType": "bool",
          "name": "",
          "type": "bool"
        }
      ],
      "stateMutability": "nonpayable",
      "type": "function"
    },
    {
      "inputs": [
        {
          "internalType": "address",
          "name": "_holder",
          "type": "address"
        },
        {
          "internalType": "uint8",
          "name": "_flag",
          "type": "uint8"
        }
      ],
      "name": "updateHolderLiquidity",
      "outputs": [
        {
          "internalType": "bool",
          "name": "",
          "type": "bool"
        }
      ],
      "stateMutability": "nonpayable",
      "type": "function"
    },
    {
      "inputs": [
        {
          "internalType": "address",
          "name": "_holder",
          "type": "address"
        },
        {
          "internalType": "uint256",
          "name": "cycle",
          "type": "uint256"
        }
      ],
      "name": "getHolderCycleDetails",
      "outputs": [
        {
          "internalType": "uint256",
          "name": "",
          "type": "uint256"
        },
        {
          "internalType": "uint256",
          "name": "",
          "type": "uint256"
        },
        {
          "internalType": "uint256",
          "name": "",
          "type": "uint256"
        },
        {
          "internalType": "uint256",
          "name": "",
          "type": "uint256"
        }
      ],
      "stateMutability": "view",
      "type": "function"
    },
    {
      "inputs": [
        {
          "internalType": "address",
          "name": "_holder",
          "type": "address"
        },
        {
          "internalType": "uint256",
          "name": "_cycle",
          "type": "uint256"
        }
      ],
      "name": "getHolderCycleRewardEligibleDetails",
      "outputs": [
        {
          "internalType": "bool",
          "name": "",
          "type": "bool"
        },
        {
          "internalType": "uint256",
          "name": "",
          "type": "uint256"
        }
      ],
      "stateMutability": "view",
      "type": "function"
    },
    {
      "inputs": [
        {
          "internalType": "address",
          "name": "token",
          "type": "address"
        },
        {
          "internalType": "address",
          "name": "_to",
          "type": "address"
        },
        {
          "internalType": "uint256",
          "name": "_amount",
          "type": "uint256"
        }
      ],
      "name": "emergency",
      "outputs": [
        {
          "internalType": "bool",
          "name": "",
          "type": "bool"
        }
      ],
      "stateMutability": "nonpayable",
      "type": "function"
    }
  ],
  "bytecode": "0x608060405260016002556000600355601e600455670de0b6b3a76400006005554260065534801561002f57600080fd5b50600061003a610089565b600080546001600160a01b0319166001600160a01b0383169081178255604051929350917f8be0079c531659141344cd1fd0a4f28419497f9722a3daafe3b4186f6b6457e0908290a35061008d565b3390565b612d9f806200009d6000396000f3fe60806040526004361061016a5760003560e01c80639c972660116100d1578063bf643ece1161008a578063c885bc5811610064578063c885bc5814610591578063e8944601146105a6578063e9c771b2146105fa578063f2fde38b14610635576101a3565b8063bf643ece14610522578063c80ca25814610537578063c864ac6414610567576101a3565b80639c972660146103ad578063afbce3b91461040c578063b02a57d81461045e578063b113e7ce14610473578063bef8104714610488578063bf079569146104e6576101a3565b80633f3207cf116101235780633f3207cf146102e957806351eb05a6146102fe5780636004a4d014610328578063626fa16214610352578063715018a6146103675780638da5cb5b1461037c576101a3565b806308e0d29d146101a857806311dea9ff146101ef57806311eaa9f91461023257806325d953d7146102775780632fa2edc5146102a15780633af8eca8146102b6576101a3565b366101a357600a600061017b610668565b6001600160a01b0316815260208101919091526040016000205460ff166101a157600080fd5b005b600080fd5b3480156101b457600080fd5b506101db600480360360208110156101cb57600080fd5b50356001600160a01b031661066c565b604080519115158252519081900360200190f35b3480156101fb57600080fd5b506101db6004803603606081101561021257600080fd5b506001600160a01b03813581169160208101359091169060400135610681565b34801561023e57600080fd5b506102656004803603602081101561025557600080fd5b50356001600160a01b0316610924565b60408051918252519081900360200190f35b34801561028357600080fd5b506101db6004803603602081101561029a57600080fd5b5035611078565b3480156102ad57600080fd5b506102656110db565b3480156102c257600080fd5b506101db600480360360208110156102d957600080fd5b50356001600160a01b03166110e1565b3480156102f557600080fd5b506102656111bc565b34801561030a57600080fd5b506101db6004803603602081101561032157600080fd5b50356111c2565b34801561033457600080fd5b506101db6004803603602081101561034b57600080fd5b50356113f1565b34801561035e57600080fd5b50610265611454565b34801561037357600080fd5b506101a161145a565b34801561038857600080fd5b506103916114fc565b604080516001600160a01b039092168252519081900360200190f35b3480156103b957600080fd5b506103e6600480360360408110156103d057600080fd5b506001600160a01b03813516906020013561150b565b604080519485526020850193909352838301919091526060830152519081900360800190f35b34801561041857600080fd5b506104366004803603602081101561042f57600080fd5b503561154d565b6040805194855260208501939093528383019190915215156060830152519081900360800190f35b34801561046a57600080fd5b50610391611577565b34801561047f57600080fd5b50610265611586565b34801561049457600080fd5b506104bb600480360360208110156104ab57600080fd5b50356001600160a01b031661158c565b6040805195865260208601949094528484019290925260608401526080830152519081900360a00190f35b3480156104f257600080fd5b506101db6004803603604081101561050957600080fd5b5080356001600160a01b0316906020013560ff166115bb565b34801561052e57600080fd5b50610265611a12565b34801561054357600080fd5b506102656004803603604081101561055a57600080fd5b5080359060200135611a18565b34801561057357600080fd5b506102656004803603602081101561058a57600080fd5b5035611a50565b34801561059d57600080fd5b506101db611a8d565b3480156105b257600080fd5b506105df600480360360408110156105c957600080fd5b506001600160a01b0381351690602001356126ff565b60408051921515835260208301919091528051918290030190f35b34801561060657600080fd5b506101a16004803603604081101561061d57600080fd5b506001600160a01b0381351690602001351515612737565b34801561064157600080fd5b506101a16004803603602081101561065857600080fd5b50356001600160a01b03166127ba565b3390565b600a6020526000908152604090205460ff1681565b600061068b610668565b6000546001600160a01b039081169116146106db576040805162461bcd60e51b81526020600482018190526024820152600080516020612cc0833981519152604482015290519081900360640190fd5b426006541061071b5760405162461bcd60e51b815260040180806020018281038252602e815260200180612d18602e913960400191505060405180910390fd5b306001600160a01b0385166107b85782816001600160a01b031631101561077c576040805162461bcd60e51b815260206004820152601060248201526f34b739bab33334b1b4b2b73a1021272160811b604482015290519081900360640190fd5b6040516001600160a01b0385169084156108fc029085906000818181858888f193505050501580156107b2573d6000803e3d6000fd5b50610909565b82856001600160a01b03166370a08231836040518263ffffffff1660e01b815260040180826001600160a01b0316815260200191505060206040518083038186803b15801561080657600080fd5b505afa15801561081a573d6000803e3d6000fd5b505050506040513d602081101561083057600080fd5b50511015610885576040805162461bcd60e51b815260206004820152601a60248201527f696e73756666696369656e7420546f6b656e2062616c616e6365000000000000604482015290519081900360640190fd5b846001600160a01b031663a9059cbb85856040518363ffffffff1660e01b815260040180836001600160a01b0316815260200182815260200192505050602060405180830381600087803b1580156108dc57600080fd5b505af11580156108f0573d6000803e3d6000fd5b505050506040513d602081101561090657600080fd5b50505b61091642620151806128b2565b600655506001949350505050565b6001600160a01b038116600090815260096020526040812060038101546004909101548291829182911115610c57576001600160a01b0385166000908152600960205260409020600381015460048054920154909161098391906128b2565b116109b657600480546001600160a01b0387166000908152600960205260409020909101546109b1916128b2565b6109d3565b6001600160a01b0385166000908152600960205260409020600301545b6001600160a01b038616600090815260096020526040812060040154919450906109fe9060016128b2565b90505b838111610c55576001600160a01b038616600090815260096020908152604080832084845260060190915281205415610a60576001600160a01b0387166000908152600960209081526040808320858452600601909152902054610a63565b60015b6001600160a01b038816600090815260096020908152604080832086845260060190915290206001908101546004549293509190610ab890610ab190610aaa908690612913565b8490612913565b87906128b2565b1115610acc57839650505050505050611073565b815b81811015610c3e5780610ae057610c36565b6001600160a01b038916600090815260096020908152604080832084845260050190915290205460ff1615610ba7576000818152600860209081526040808320600201546001600160a01b038d16845260098352818420858552600501909252909120600101541015610ba2576001600160a01b038916600090815260096020908152604080832084845260050182528083206001015460089092529091206002015462093a8091610b929190612913565b1015610b9d57610c36565b610ba7565b610c36565b6000610bb282611a50565b6001600160a01b038b166000908152600960209081526040808320898452600601909152902060020154909150610bea846001612913565b831415610c1d57506001600160a01b038a1660009081526009602090815260408083208884526006019091529020600301545b610c31610c2a8383611a18565b88906128b2565b965050505b600101610ace565b50610c4985826128b2565b94505050600101610a01565b505b60045482101561106e576002546001600160a01b038616600090815260096020908152604080832060038101548452600601909152902060010154101561106e57600254600114158015610ce55750600254610cb4906001612913565b6001600160a01b03861660009081526009602090815260408083206003810154845260060190915290206001015411155b1561106e57600454600090610cfa9084612913565b600254909150610d0b906001612913565b6001600160a01b038716600090815260096020908152604080832060038101548452600601909152902060010154610d4390836128b2565b11610d85576001600160a01b038616600090815260096020908152604080832060038101548452600601909152902060010154610d8090826128b2565b610d93565b600254610d93906001612913565b6001600160a01b0387166000908152600960209081526040808320600381015484526006019091528120600101549195509015610dfd576001600160a01b038716600090815260096020908152604080832060038101548452600601909152902060010154610e00565b60015b90505b84811161106b576001600160a01b038716600090815260096020908152604080832060038101548452600601909152902060010154158015610ebb5750600754604080516370a0823160e01b81526001600160a01b038a81166004830152915191909216916370a08231916024808301926020929190829003018186803b158015610e8d57600080fd5b505afa158015610ea1573d6000803e3d6000fd5b505050506040513d6020811015610eb757600080fd5b5051155b15610ec557611063565b6001600160a01b038716600090815260096020908152604080832084845260050190915290205460ff1615610f8c576000818152600860209081526040808320600201546001600160a01b038b16845260098352818420858552600501909252909120600101541015610f87576001600160a01b038716600090815260096020908152604080832084845260050182528083206001015460089092529091206002015462093a8091610f779190612913565b1015610f8257611063565b610f8c565b611063565b6001600160a01b03871660008181526009602081815260408084206003808201548087526006909201845291852090910154949093525261104357600754604080516370a0823160e01b81526001600160a01b038b81166004830152915191909216916370a08231916024808301926020929190829003018186803b15801561101457600080fd5b505afa158015611028573d6000803e3d6000fd5b505050506040513d602081101561103e57600080fd5b505190505b61105f61105861105284611a50565b83611a18565b85906128b2565b9350505b600101610e03565b50505b925050505b919050565b6000611082610668565b6000546001600160a01b039081169116146110d2576040805162461bcd60e51b81526020600482018190526024820152600080516020612cc0833981519152604482015290519081900360640190fd5b50600455600190565b60045481565b60006110eb610668565b6000546001600160a01b0390811691161461113b576040805162461bcd60e51b81526020600482018190526024820152600080516020612cc0833981519152604482015290519081900360640190fd5b6001600160a01b0382161580159061115c57506007546001600160a01b0316155b6111975760405162461bcd60e51b8152600401808060200182810382526034815260200180612c126034913960400191505060405180910390fd5b50600780546001600160a01b0383166001600160a01b03199091161790556001919050565b60065481565b6000600a60006111d0610668565b6001600160a01b0316815260208101919091526040016000205460ff166111f657600080fd5b600082116112355760405162461bcd60e51b8152600401808060200182810382526033815260200180612c6c6033913960400191505060405180910390fd5b60055460025460009081526008602052604090205483919061125790836128b2565b11156113615760025460009081526008602052604081205460055461127b91612913565b905060006112898383612913565b6002546000908152600860205260409020549091506112a890836128b2565b600280546000908152600860205260408082209390935581548152918220429101556005546112d8908390612955565b9050801561134a5760015b81811161132e576112f5600554612997565b6005546002546000908152600860205260409020541061132657600280546000908152600860205260409020429101555b6001016112e3565b506005546113479061134090836129e7565b8390612913565b91505b81156113595761135982612997565b5050506113ae565b60025460009081526008602052604090205461137d90826128b2565b60028054600090815260086020526040808220939093559054815220600101546113ae576113ac600254612a40565b505b6040805184815242602082015281517f763ec2255af65fa94fc3bd27d2bfe0cd8cfe0379e4c8e3e5095b172304f8b564929181900390910190a150600192915050565b60006113fb610668565b6000546001600160a01b0390811691161461144b576040805162461bcd60e51b81526020600482018190526024820152600080516020612cc0833981519152604482015290519081900360640190fd5b50600555600190565b60025481565b611462610668565b6000546001600160a01b039081169116146114b2576040805162461bcd60e51b81526020600482018190526024820152600080516020612cc0833981519152604482015290519081900360640190fd5b600080546040516001600160a01b03909116907f8be0079c531659141344cd1fd0a4f28419497f9722a3daafe3b4186f6b6457e0908390a3600080546001600160a01b0319169055565b6000546001600160a01b031690565b6001600160a01b039190911660009081526009602090815260408083209383526006909301905220805460018201546002830154600390930154919390929190565b60086020526000908152604090208054600182015460028301546003909301549192909160ff1684565b6007546001600160a01b031681565b60035481565b600960205260009081526040902080546001820154600283015460038401546004909401549293919290919085565b6000600a60006115c9610668565b6001600160a01b0316815260208101919091526040016000205460ff166115ef57600080fd5b8160ff166001148061160457508160ff166002145b61163f5760405162461bcd60e51b8152600401808060200182810382526038815260200180612ce06038913960400191505060405180910390fd5b6001600160a01b038316600090815260096020526040902060010154421115611998576001600160a01b03831660009081526009602052604090206001015461176257600754604080516370a0823160e01b81526001600160a01b038681166004830152915191909216916370a08231916024808301926020929190829003018186803b1580156116cf57600080fd5b505afa1580156116e3573d6000803e3d6000fd5b505050506040513d60208110156116f957600080fd5b50516001600160a01b0384166000908152600960205260409020556117214262093a806128b2565b6001600160a01b038416600090815260096020908152604080832060018082019590955560025484526005019091529020805460ff19169091179055611993565b61176f4262093a806128b2565b6001600160a01b03841660009081526009602052604090206001810191909155600280549101541015611820576001600160a01b03831660008181526009602081815260408084206003808201805460019081019182905584516080810186526002808601805483528154838a019081528754848a0181815260608601918252968d5260069098018a52978b209251835596519282019290925591518282015592519101555494909352525561187a565b600280546001600160a01b038516600090815260096020526040902090910154141561187a576001600160a01b03831660009081526009602090815260408083208054600380830154865260069092019093529220909101555b600754604080516370a0823160e01b81526001600160a01b038681166004830152915191909216916370a08231916024808301926020929190829003018186803b1580156118c757600080fd5b505afa1580156118db573d6000803e3d6000fd5b505050506040513d60208110156118f157600080fd5b50516001600160a01b038416600090815260096020526040902055600160ff83161415611962576001600160a01b03831660009081526009602090815260408083206002805485526005909101909252808320805460ff191660019081179091559154835290912042910155611993565b6001600160a01b038316600090815260096020908152604080832060025484526005019091529020805460ff191690555b611a08565b8160ff16600114156119d8576001600160a01b038316600090815260096020908152604080832060025484526005019091529020805460ff191660011790555b6001600160a01b038316600090815260096020908152604080832060025484526005019091529020426001909101555b5060015b92915050565b60055481565b600080611a3464e8d4a51000611a2e86866129e7565b90612955565b9050611a4881670de0b6b3a7640000612955565b949350505050565b600081815260086020526040812060018101549054611a0c9190611a2e90670de0b6b3a764000090611a879064e8d4a510006129e7565b906129e7565b60008060008060096000611a9f610668565b6001600160a01b03166001600160a01b031681526020019081526020016000206003015460096000611acf610668565b6001600160a01b03166001600160a01b0316815260200190815260200160002060040154108015611b2f5750600060096000611b09610668565b6001600160a01b03166001600160a01b0316815260200190815260200160002060030154115b15611f6f5760096000611b40610668565b6001600160a01b03166001600160a01b0316815260200190815260200160002060030154611b9960045460096000611b76610668565b6001600160a01b03168152602081019190915260400160002060040154906128b2565b11611bb557611bb060045460096000611b76610668565b611be6565b60096000611bc1610668565b6001600160a01b03166001600160a01b03168152602001908152602001600020600301545b92506000611bfb600160096000611b76610668565b90505b838111611f6d57600060096000611c13610668565b6001600160a01b031681526020808201929092526040908101600090812085825260060190925290205415611c7d5760096000611c4e610668565b6001600160a01b0316815260208082019290925260409081016000908120858252600601909252902054611c80565b60015b9050600060096000611c90610668565b6001600160a01b03166001600160a01b031681526020019081526020016000206006016000848152602001908152602001600020600101549050600454611ce7610ab1610aaa60018661291390919063ffffffff16565b1015611f1b57815b81811015611f155780611d0157611f0d565b60096000611d0d610668565b6001600160a01b031681526020808201929092526040908101600090812084825260050190925290205460ff1615611e005760008181526008602052604081206002015490600990611d5d610668565b6001600160a01b03166001600160a01b031681526020019081526020016000206005016000838152602001908152602001600020600101541015611dfb5762093a80611deb60096000611dae610668565b6001600160a01b03168152602080820192909252604090810160009081208682526005018352818120600101546008909352206002015490612913565b1015611df657611f0d565b611e00565b611f0d565b6000611e0b82611a50565b9050600060096000611e1b610668565b6001600160a01b03166001600160a01b03168152602001908152602001600020600601600087815260200190815260200160002060020154905083831415611ea45760096000611e69610668565b6001600160a01b03166001600160a01b0316815260200190815260200160002060060160008781526020019081526020016000206003015490505b6000611eb08383611a18565b9050611ebc88826128b2565b600085815260086020526040812060020154919950600990611edc610668565b6001600160a01b03168152602080820192909252604090810160009081208882526005019092529020600101555050505b600101611cef565b50611f22565b5050611f6d565b611f2c85826128b2565b945060096000611f3a610668565b6001600160a01b03168152602081019190915260400160002060040180546001908101909155929092019150611bfe9050565b505b6004548210156125fc5760025460096000611f88610668565b6001600160a01b03166001600160a01b03168152602001908152602001600020600601600060096000611fb9610668565b6001600160a01b03166001600160a01b031681526020019081526020016000206003015481526020019081526020016000206001015410156125fc576002546001141580156120875750600254612011906001612913565b6009600061201d610668565b6001600160a01b03166001600160a01b0316815260200190815260200160002060060160006009600061204e610668565b6001600160a01b03166001600160a01b031681526020019081526020016000206003015481526020019081526020016000206001015411155b156125fc5760045460009061209c9084612913565b6002549091506120ad906001612913565b61213282600960006120bd610668565b6001600160a01b03166001600160a01b031681526020019081526020016000206006016000600960006120ee610668565b6001600160a01b03166001600160a01b03168152602001908152602001600020600301548152602001908152602001600020600101546128b290919063ffffffff16565b1161214c5761214781600960006120bd610668565b61215a565b60025461215a906001612913565b935060006009600061216a610668565b6001600160a01b03166001600160a01b0316815260200190815260200160002060060160006009600061219b610668565b6001600160a01b03166001600160a01b031681526020019081526020016000206003015481526020019081526020016000206001015460001461225057600960006121e4610668565b6001600160a01b03166001600160a01b03168152602001908152602001600020600601600060096000612215610668565b6001600160a01b03166001600160a01b0316815260200190815260200160002060030154815260200190815260200160002060010154612253565b60015b90505b8481116125f95760096000612269610668565b6001600160a01b03166001600160a01b0316815260200190815260200160002060060160006009600061229a610668565b6001600160a01b03166001600160a01b0316815260200190815260200160002060030154815260200190815260200160002060010154600014801561235e57506007546001600160a01b03166370a082316122f3610668565b6040518263ffffffff1660e01b815260040180826001600160a01b0316815260200191505060206040518083038186803b15801561233057600080fd5b505afa158015612344573d6000803e3d6000fd5b505050506040513d602081101561235a57600080fd5b5051155b15612368576125f1565b60096000612374610668565b6001600160a01b031681526020808201929092526040908101600090812084825260050190925290205460ff161561242a57600081815260086020526040812060020154906009906123c4610668565b6001600160a01b03166001600160a01b0316815260200190815260200160002060050160008381526020019081526020016000206001015410156124255762093a8061241560096000611dae610668565b1015612420576125f1565b61242a565b6125f1565b600060096000612438610668565b6001600160a01b03166001600160a01b03168152602001908152602001600020600601600060096000612469610668565b6001600160a01b03166001600160a01b03168152602001908152602001600020600301548152602001908152602001600020600301549050600960006124ad610668565b6001600160a01b03168152602081019190915260400160002060030154612553576007546001600160a01b03166370a082316124e7610668565b6040518263ffffffff1660e01b815260040180826001600160a01b0316815260200191505060206040518083038186803b15801561252457600080fd5b505afa158015612538573d6000803e3d6000fd5b505050506040513d602081101561254e57600080fd5b505190505b61256261105861105284611a50565b9350600160096000612572610668565b6001600160a01b03168152602080820192909252604090810160009081208682526005018352818120805460ff1916941515949094179093556008909152812060020154906009906125c2610668565b6001600160a01b0316815260208082019290925260409081016000908120868252600501909252902060010155505b600101612256565b50505b6000811161263b5760405162461bcd60e51b8152600401808060200182810382526030815260200180612be26030913960400191505060405180910390fd5b612643610668565b6001600160a01b03166108fc829081150290604051600060405180830381858888f193505050506126a55760405162461bcd60e51b8152600401808060200182810382526024815260200180612d466024913960400191505060405180910390fd5b6126ad610668565b6001600160a01b03167ff78dd594a6a60bfe5774ff30d6f456f7ae0cfedb31c5eb1bf15045be0cdb205b8242604051808381526020018281526020019250505060405180910390a26001935050505090565b6001600160a01b039190911660009081526009602090815260408083209383526005909301905220805460019091015460ff90911691565b61273f610668565b6000546001600160a01b0390811691161461278f576040805162461bcd60e51b81526020600482018190526024820152600080516020612cc0833981519152604482015290519081900360640190fd5b6001600160a01b03919091166000908152600a60205260409020805460ff1916911515919091179055565b6127c2610668565b6000546001600160a01b03908116911614612812576040805162461bcd60e51b81526020600482018190526024820152600080516020612cc0833981519152604482015290519081900360640190fd5b6001600160a01b0381166128575760405162461bcd60e51b8152600401808060200182810382526026815260200180612c466026913960400191505060405180910390fd5b600080546040516001600160a01b03808516939216917f8be0079c531659141344cd1fd0a4f28419497f9722a3daafe3b4186f6b6457e091a3600080546001600160a01b0319166001600160a01b0392909216919091179055565b60008282018381101561290c576040805162461bcd60e51b815260206004820152601b60248201527f536166654d6174683a206164646974696f6e206f766572666c6f770000000000604482015290519081900360640190fd5b9392505050565b600061290c83836040518060400160405280601e81526020017f536166654d6174683a207375627472616374696f6e206f766572666c6f770000815250612ae5565b600061290c83836040518060400160405280601a81526020017f536166654d6174683a206469766973696f6e206279207a65726f000000000000815250612b7c565b6002546129a59060016128b2565b60028190556000908152600860205260409020546129c390826128b2565b60028054600090815260086020526040902091909155546129e390612a40565b5050565b6000826129f657506000611a0c565b82820282848281612a0357fe5b041461290c5760405162461bcd60e51b8152600401808060200182810382526021815260200180612c9f6021913960400191505060405180910390fd5b6000818152600860209081526040808320600301805460ff1916600117905560075481516318160ddd60e01b815291516001600160a01b03909116926318160ddd9260048082019391829003018186803b158015612a9d57600080fd5b505afa158015612ab1573d6000803e3d6000fd5b505050506040513d6020811015612ac757600080fd5b50516000928352600860205260409092206001908101929092555090565b60008184841115612b745760405162461bcd60e51b81526004018080602001828103825283818151815260200191508051906020019080838360005b83811015612b39578181015183820152602001612b21565b50505050905090810190601f168015612b665780820380516001836020036101000a031916815260200191505b509250505060405180910390fd5b505050900390565b60008183612bcb5760405162461bcd60e51b8152602060048201818152835160248401528351909283926044909101919085019080838360008315612b39578181015183820152602001612b21565b506000838581612bd757fe5b049594505050505056fe526577617264506f6f6c203a3a2077697468647261775265776172643a206e6f2070656e64696e6720726577617264735465616d5661756c74203a3a2075706461746564445842203a20445842206164647265737320697320616c7265616479207365744f776e61626c653a206e6577206f776e657220697320746865207a65726f2061646472657373526577617264506f6f6c203a3a20757064617465506f6f6c203a205f616d6f756e74206d757374206e6f74206265207a65726f536166654d6174683a206d756c7469706c69636174696f6e206f766572666c6f774f776e61626c653a2063616c6c6572206973206e6f7420746865206f776e6572526577617264506f6f6c203a3a20757064617465486f6c6465724c69717569646974793a20666c6167206d7573742062652031206f722032526577617264506f6f6c203a3a20656d657267656e6379203a20776169742074696c6c20323468727320656e647352657761726420706f6f6c203a3a20776974686472617720636c61696d206661696c6564a2646970667358221220f136e1218de1e5d09a5d1eb1439e730f184a2831f8be17a821a0d71d8b49f84064736f6c634300060c0033",
  "immutableReferences": {},
  "source": "pragma solidity 0.6.12;\n// SPDX-License-Identifier: Unlicensed\n\ninterface IBEP20 {\n\n    function totalSupply() external view returns (uint256);\n\n    /**\n     * @dev Returns the amount of tokens owned by `account`.\n     */\n    function balanceOf(address account) external view returns (uint256);\n\n    /**\n     * @dev Moves `amount` tokens from the caller's account to `recipient`.\n     *\n     * Returns a boolean value indicating whether the operation succeeded.\n     *\n     * Emits a {Transfer} event.\n     */\n    function transfer(address recipient, uint256 amount) external returns (bool);\n\n    /**\n     * @dev Returns the remaining number of tokens that `spender` will be\n     * allowed to spend on behalf of `owner` through {transferFrom}. This is\n     * zero by default.\n     *\n     * This value changes when {approve} or {transferFrom} are called.\n     */\n    function allowance(address owner, address spender) external view returns (uint256);\n\n    /**\n     * @dev Sets `amount` as the allowance of `spender` over the caller's tokens.\n     *\n     * Returns a boolean value indicating whether the operation succeeded.\n     *\n     * IMPORTANT: Beware that changing an allowance with this method brings the risk\n     * that someone may use both the old and the new allowance by unfortunate\n     * transaction ordering. One possible solution to mitigate this race\n     * condition is to first reduce the spender's allowance to 0 and set the\n     * desired value afterwards:\n     * https://github.com/ethereum/EIPs/issues/20#issuecomment-263524729\n     *\n     * Emits an {Approval} event.\n     */\n    function approve(address spender, uint256 amount) external returns (bool);\n\n    /**\n     * @dev Moves `amount` tokens from `sender` to `recipient` using the\n     * allowance mechanism. `amount` is then deducted from the caller's\n     * allowance.\n     *\n     * Returns a boolean value indicating whether the operation succeeded.\n     *\n     * Emits a {Transfer} event.\n     */\n    function transferFrom(address sender, address recipient, uint256 amount) external returns (bool);\n\n    /**\n     * @dev Emitted when `value` tokens are moved from one account (`from`) to\n     * another (`to`).\n     *\n     * Note that `value` may be zero.\n     */\n    event Transfer(address indexed from, address indexed to, uint256 value);\n\n    /**\n     * @dev Emitted when the allowance of a `spender` for an `owner` is set by\n     * a call to {approve}. `value` is the new allowance.\n     */\n    event Approval(address indexed owner, address indexed spender, uint256 value);\n}\n\nlibrary SafeMath {\n    /**\n     * @dev Returns the addition of two unsigned integers, reverting on\n     * overflow.\n     *\n     * Counterpart to Solidity's `+` operator.\n     *\n     * Requirements:\n     *\n     * - Addition cannot overflow.\n     */\n    function add(uint256 a, uint256 b) internal pure returns (uint256) {\n        uint256 c = a + b;\n        require(c >= a, \"SafeMath: addition overflow\");\n\n        return c;\n    }\n\n    /**\n     * @dev Returns the subtraction of two unsigned integers, reverting on\n     * overflow (when the result is negative).\n     *\n     * Counterpart to Solidity's `-` operator.\n     *\n     * Requirements:\n     *\n     * - Subtraction cannot overflow.\n     */\n    function sub(uint256 a, uint256 b) internal pure returns (uint256) {\n        return sub(a, b, \"SafeMath: subtraction overflow\");\n    }\n\n    /**\n     * @dev Returns the subtraction of two unsigned integers, reverting with custom message on\n     * overflow (when the result is negative).\n     *\n     * Counterpart to Solidity's `-` operator.\n     *\n     * Requirements:\n     *\n     * - Subtraction cannot overflow.\n     */\n    function sub(uint256 a, uint256 b, string memory errorMessage) internal pure returns (uint256) {\n        require(b <= a, errorMessage);\n        uint256 c = a - b;\n\n        return c;\n    }\n\n    /**\n     * @dev Returns the multiplication of two unsigned integers, reverting on\n     * overflow.\n     *\n     * Counterpart to Solidity's `*` operator.\n     *\n     * Requirements:\n     *\n     * - Multiplication cannot overflow.\n     */\n    function mul(uint256 a, uint256 b) internal pure returns (uint256) {\n        // Gas optimization: this is cheaper than requiring 'a' not being zero, but the\n        // benefit is lost if 'b' is also tested.\n        // See: https://github.com/OpenZeppelin/openzeppelin-contracts/pull/522\n        if (a == 0) {\n            return 0;\n        }\n\n        uint256 c = a * b;\n        require(c / a == b, \"SafeMath: multiplication overflow\");\n\n        return c;\n    }\n\n    /**\n     * @dev Returns the integer division of two unsigned integers. Reverts on\n     * division by zero. The result is rounded towards zero.\n     *\n     * Counterpart to Solidity's `/` operator. Note: this function uses a\n     * `revert` opcode (which leaves remaining gas untouched) while Solidity\n     * uses an invalid opcode to revert (consuming all remaining gas).\n     *\n     * Requirements:\n     *\n     * - The divisor cannot be zero.\n     */\n    function div(uint256 a, uint256 b) internal pure returns (uint256) {\n        return div(a, b, \"SafeMath: division by zero\");\n    }\n\n    /**\n     * @dev Returns the integer division of two unsigned integers. Reverts with custom message on\n     * division by zero. The result is rounded towards zero.\n     *\n     * Counterpart to Solidity's `/` operator. Note: this function uses a\n     * `revert` opcode (which leaves remaining gas untouched) while Solidity\n     * uses an invalid opcode to revert (consuming all remaining gas).\n     *\n     * Requirements:\n     *\n     * - The divisor cannot be zero.\n     */\n    function div(uint256 a, uint256 b, string memory errorMessage) internal pure returns (uint256) {\n        require(b > 0, errorMessage);\n        uint256 c = a / b;\n        // assert(a == b * c + a % b); // There is no case in which this doesn't hold\n\n        return c;\n    }\n\n    /**\n     * @dev Returns the remainder of dividing two unsigned integers. (unsigned integer modulo),\n     * Reverts when dividing by zero.\n     *\n     * Counterpart to Solidity's `%` operator. This function uses a `revert`\n     * opcode (which leaves remaining gas untouched) while Solidity uses an\n     * invalid opcode to revert (consuming all remaining gas).\n     *\n     * Requirements:\n     *\n     * - The divisor cannot be zero.\n     */\n    function mod(uint256 a, uint256 b) internal pure returns (uint256) {\n        return mod(a, b, \"SafeMath: modulo by zero\");\n    }\n\n    /**\n     * @dev Returns the remainder of dividing two unsigned integers. (unsigned integer modulo),\n     * Reverts with custom message when dividing by zero.\n     *\n     * Counterpart to Solidity's `%` operator. This function uses a `revert`\n     * opcode (which leaves remaining gas untouched) while Solidity uses an\n     * invalid opcode to revert (consuming all remaining gas).\n     *\n     * Requirements:\n     *\n     * - The divisor cannot be zero.\n     */\n    function mod(uint256 a, uint256 b, string memory errorMessage) internal pure returns (uint256) {\n        require(b != 0, errorMessage);\n        return a % b;\n    }\n}\n\nabstract contract Context {\n    function _msgSender() internal view virtual returns (address) {\n        return msg.sender;\n    }\n\n    function _msgData() internal view virtual returns (bytes memory) {\n        this; // silence state mutability warning without generating bytecode - see https://github.com/ethereum/solidity/issues/2691\n        return msg.data;\n    }\n}\n\ncontract Ownable is Context {\n    address private _owner;\n    address private _previousOwner;\n\n    event OwnershipTransferred(address indexed previousOwner, address indexed newOwner);\n\n    /**\n     * @dev Initializes the contract setting the deployer as the initial owner.\n     */\n    constructor () internal {\n        address msgSender = _msgSender();\n        _owner = msgSender;\n        emit OwnershipTransferred(address(0), msgSender);\n    }\n\n    /**\n     * @dev Returns the address of the current owner.\n     */\n    function owner() public view returns (address) {\n        return _owner;\n    }\n\n    /**\n     * @dev Throws if called by any account other than the owner.\n     */\n    modifier onlyOwner() {\n        require(_owner == _msgSender(), \"Ownable: caller is not the owner\");\n        _;\n    }\n\n     /**\n     * @dev Leaves the contract without owner. It will not be possible to call\n     * `onlyOwner` functions anymore. Can only be called by the current owner.\n     *\n     * NOTE: Renouncing ownership will leave the contract without an owner,\n     * thereby removing any functionality that is only available to the owner.\n     */\n    function renounceOwnership() public virtual onlyOwner {\n        emit OwnershipTransferred(_owner, address(0));\n        _owner = address(0);\n    }\n\n    /**\n     * @dev Transfers ownership of the contract to a new account (`newOwner`).\n     * Can only be called by the current owner.\n     */\n    function transferOwnership(address newOwner) public virtual onlyOwner {\n        require(newOwner != address(0), \"Ownable: new owner is the zero address\");\n        emit OwnershipTransferred(_owner, newOwner);\n        _owner = newOwner;\n    }\n}\n\ncontract RewardPool is Ownable {\n    using SafeMath for uint;\n    \n    event rewardWithdrawal( address indexed _holder, uint _amount, uint _time);\n    event rewardsReceived( uint _amount, uint _time);\n    \n    struct CycleSruct {\n        uint _cycleCollected;\n        uint _currentTotalSupply;\n        uint _cycleEndedTimeStamp;\n        bool _isCycleActive;\n    }\n    \n    struct holderStruct{\n        uint _currentDXBBalance;\n        uint _timestamp;\n        uint lastUpdatedCycle;\n        uint _lastestCycle;\n        uint _lastWithdrawnCycle;\n        mapping(uint => holderRewardStruct) isEnableForRewards;\n        mapping(uint => holdercycleTrackStruct) _cycleTrack;\n    }\n    \n    struct holdercycleTrackStruct{\n        uint _fromCycle;\n        uint _toCycle;\n        uint _pastBalance;\n        uint _currentCycleBalance;\n    }\n    \n    struct holderRewardStruct {\n        bool isEnableToClaim;\n        uint disabledTimeStamp;\n    }\n    \n    uint public currCycle = 1;\n    uint public previousBalance = 0;\n    uint public estimatedLoop = 30;\n    uint public maxCycleReward = 1e18;\n    uint public emergencyWithdrawalPeriod = block.timestamp;\n    \n    IBEP20 public DXB;\n    \n    mapping(uint => CycleSruct) public cycles;\n    mapping(address => holderStruct) public holderWallet;\n    mapping(address => bool) public authenticate;\n    \n    receive() external payable onlyAuth() {\n    }\n    \n    modifier onlyAuth(){\n        require(authenticate[_msgSender()]);\n        _;\n    }\n    \n     /** \n     * @dev Calls updatedDXB() function to set tokens .\n     * @param _DXB DXB token.\n     * @return bool\n     */\n    function updatedDXB( IBEP20 _DXB) public onlyOwner returns (bool) {\n        require((address(_DXB) != address(0)) && ( address(DXB) == address(0)), \"TeamVault :: updatedDXB : DXB address is already set\");\n        DXB = _DXB;\n        return true;\n    }\n    \n    function updateEstimatedLoop(uint _eLoop) public onlyOwner returns (bool) {\n        estimatedLoop = _eLoop;\n        return true;\n    }\n    \n    function updateMaxCycleReward( uint _maxCycleReward) public onlyOwner returns (bool) {\n        maxCycleReward = _maxCycleReward;\n        return true;\n    }\n    \n    /** \n     * @dev Calls updateAuth() function to set authentication.\n     * @param _auth authentication address.\n     * @param _status true to enable.\n     */\n    function updateAuth(address _auth, bool _status) public onlyOwner { authenticate[_auth] = _status; }\n    \n    /** \n     * @dev Calls updatePool() function to update pool.\n     * @return bool\n     */\n    function updatePool(uint _amount) external onlyAuth() returns (bool) {\n        require(_amount > 0, \"RewardPool :: updatePool : _amount must not be zero\");\n            uint _availableBal = _amount;\n            \n            if(cycles[currCycle]._cycleCollected.add(_availableBal) > maxCycleReward){\n                uint _currentPool = uint(maxCycleReward).sub(cycles[currCycle]._cycleCollected);\n                uint _liquidityToNextPool = _availableBal.sub(_currentPool);\n                \n                cycles[currCycle]._cycleCollected = cycles[currCycle]._cycleCollected.add(_currentPool);\n                cycles[currCycle]._cycleEndedTimeStamp = block.timestamp;\n                \n                uint _newCycles = _liquidityToNextPool.div(maxCycleReward);\n                \n                if(_newCycles > 0){\n                    for(uint i=1;i<=_newCycles;i++){\n                        _createNewCycle(maxCycleReward);\n                        \n                        if(cycles[currCycle]._cycleCollected >= maxCycleReward) cycles[currCycle]._cycleEndedTimeStamp = block.timestamp;\n                    }\n                    _liquidityToNextPool = _liquidityToNextPool.sub(uint(maxCycleReward).mul(_newCycles));\n                }\n                \n                if(_liquidityToNextPool > 0) _createNewCycle(_liquidityToNextPool);\n            }\n            else{\n                cycles[currCycle]._cycleCollected = cycles[currCycle]._cycleCollected.add(_availableBal);\n                if((cycles[currCycle]._currentTotalSupply == 0)) _updateCycleInfo(currCycle); \n            }\n            \n        emit rewardsReceived( _amount, block.timestamp);\n        return true;\n    }\n    \n    function _createNewCycle( uint _amount) private {\n        currCycle = currCycle.add(1);\n        cycles[currCycle]._cycleCollected = cycles[currCycle]._cycleCollected.add(_amount);\n        _updateCycleInfo( currCycle);\n    }\n    \n    function _updateCycleInfo( uint _cycle) private returns (bool) {\n        cycles[_cycle]._isCycleActive = true;\n        cycles[_cycle]._currentTotalSupply = DXB.totalSupply();\n        return true;\n    }\n    \n    /** \n     * @dev Calls _calculateReward() function to calculate reward.\n     * @param _currentPerShare current reward per share\n     * @param _cycleDXBBalance balance of DXB\n     * @return uint\n     */\n    function _calculateReward( uint _currentPerShare, uint _cycleDXBBalance) public pure returns (uint) {\n        uint rewardBNB = _currentPerShare.mul(_cycleDXBBalance).div(1e12);\n        return rewardBNB.div(1e18);\n    }\n    \n    /** \n     * @dev Calls _getSharePerValue() function to value for a share.\n     * @param cycle cycles\n     * @return uint\n     */\n    function _getSharePerValue(uint cycle) public view returns (uint) {\n        return (cycles[cycle]._cycleCollected.mul(1e12)).mul(1e18).div(cycles[cycle]._currentTotalSupply);\n    }\n    \n     /** \n     * @dev Calls viewClaimReward() function to view claims to withdraw.\n     * @param _holder holder address\n     * @return uint\n     */\n    function viewClaimReward( address _holder) external view returns (uint) {\n        uint _cyclesUntill;\n        uint totalCycleCount;\n        uint _totalReward;\n        \n        if(holderWallet[_holder]._lastWithdrawnCycle < holderWallet[_holder]._lastestCycle){\n            _cyclesUntill =  (holderWallet[_holder]._lastWithdrawnCycle.add(estimatedLoop) > holderWallet[_holder]._lastestCycle) ? holderWallet[_holder]._lastestCycle : holderWallet[_holder]._lastWithdrawnCycle.add(estimatedLoop);            \n            for(uint i=holderWallet[_holder]._lastWithdrawnCycle.add(1);i<=_cyclesUntill;i++){\n                uint _startCycle = (holderWallet[_holder]._cycleTrack[i]._fromCycle == 0) ? 1 : holderWallet[_holder]._cycleTrack[i]._fromCycle;\n                uint _toCycle = holderWallet[_holder]._cycleTrack[i]._toCycle;\n                \n                if(totalCycleCount.add(_toCycle.sub(_startCycle.sub(1))) > estimatedLoop){\n                   return _totalReward;     \n                }\n                \n                for(uint j=_startCycle;j<_toCycle;j++){\n                     if(j==0)\n                        continue;\n                    \n                    if(holderWallet[_holder].isEnableForRewards[j].isEnableToClaim){\n                        if(holderWallet[_holder].isEnableForRewards[j].disabledTimeStamp < cycles[j]._cycleEndedTimeStamp){\n                            if(cycles[j]._cycleEndedTimeStamp.sub(holderWallet[_holder].isEnableForRewards[j].disabledTimeStamp) < 7 days)\n                                continue;\n                        }\n                        else{\n                             continue;\n                        }\n                    }\n                        \n                    uint _cyclePerShare = _getSharePerValue(j);\n                    uint _cyclebalance = holderWallet[_holder]._cycleTrack[i]._pastBalance;\n                    if(j == _toCycle.sub(uint(1))) _cyclebalance = holderWallet[_holder]._cycleTrack[i]._currentCycleBalance;\n                    _totalReward = _totalReward.add(_calculateReward( _cyclePerShare, _cyclebalance));\n                    \n                }\n                totalCycleCount = totalCycleCount.add(_toCycle);\n            }\n            \n           \n        }\n        \n        if(totalCycleCount < estimatedLoop){\n            if(holderWallet[_holder]._cycleTrack[holderWallet[_holder]._lastestCycle]._toCycle < currCycle){\n                \n                if((currCycle != 1) && (holderWallet[_holder]._cycleTrack[holderWallet[_holder]._lastestCycle]._toCycle <= currCycle.sub(1)))\n                {\n                    \n                    uint remainingLoop = uint(estimatedLoop).sub(totalCycleCount);\n                    _cyclesUntill =  (holderWallet[_holder]._cycleTrack[holderWallet[_holder]._lastestCycle]._toCycle.add(remainingLoop) > currCycle.sub(1)) ? currCycle.sub(1) : holderWallet[_holder]._cycleTrack[holderWallet[_holder]._lastestCycle]._toCycle.add(remainingLoop);            \n                    \n                    for(uint i=(holderWallet[_holder]._cycleTrack[holderWallet[_holder]._lastestCycle]._toCycle == 0) ? 1 : holderWallet[_holder]._cycleTrack[holderWallet[_holder]._lastestCycle]._toCycle;i<=_cyclesUntill;i++){\n                        if((holderWallet[_holder]._cycleTrack[holderWallet[_holder]._lastestCycle]._toCycle == 0) && (DXB.balanceOf(_holder) == 0 )) { continue; }\n                        if((holderWallet[_holder].isEnableForRewards[i].isEnableToClaim)){\n                                if(holderWallet[_holder].isEnableForRewards[i].disabledTimeStamp < cycles[i]._cycleEndedTimeStamp){\n                                    if((cycles[i]._cycleEndedTimeStamp.sub(holderWallet[_holder].isEnableForRewards[i].disabledTimeStamp) < 7 days))\n                                        continue;\n                                }\n                                else{\n                                     continue;\n                                }\n                        }\n                        \n                         uint _cycleShare = holderWallet[_holder]._cycleTrack[holderWallet[_holder]._lastestCycle]._currentCycleBalance;\n                         if(holderWallet[_holder]._lastestCycle == 0) _cycleShare = DXB.balanceOf(_holder);\n                        \n                        _totalReward = _totalReward.add(_calculateReward( _getSharePerValue(i),_cycleShare));\n                    }\n                }\n            }\n        }\n         return _totalReward;\n    }\n    \n    /** \n     * @dev Calls withdrawReward() function to claims the rewards.\n     * @return bool\n     */\n    function withdrawReward() external  returns (bool) {\n        uint _cyclesUntill;\n        uint totalCycleCount;\n        uint _totalReward;\n        if((holderWallet[_msgSender()]._lastWithdrawnCycle < holderWallet[_msgSender()]._lastestCycle) && (holderWallet[_msgSender()]._lastestCycle > 0)){\n            _cyclesUntill =  (holderWallet[_msgSender()]._lastWithdrawnCycle.add(estimatedLoop) > holderWallet[_msgSender()]._lastestCycle) ? holderWallet[_msgSender()]._lastestCycle : holderWallet[_msgSender()]._lastWithdrawnCycle.add(estimatedLoop);\n            for(uint i=holderWallet[_msgSender()]._lastWithdrawnCycle.add(1);i<=_cyclesUntill;i++){\n                uint _startCycle = (holderWallet[_msgSender()]._cycleTrack[i]._fromCycle == 0) ? 1 : holderWallet[_msgSender()]._cycleTrack[i]._fromCycle;\n                uint _toCycle = holderWallet[_msgSender()]._cycleTrack[i]._toCycle;\n                \n                if(totalCycleCount.add(_toCycle.sub(_startCycle.sub(1))) < estimatedLoop){\n                    for(uint j=_startCycle;j<_toCycle;j++){\n                        if(j==0)\n                            continue;   \n                            \n                        if(holderWallet[_msgSender()].isEnableForRewards[j].isEnableToClaim){\n                            if(holderWallet[_msgSender()].isEnableForRewards[j].disabledTimeStamp < cycles[j]._cycleEndedTimeStamp){\n                                if(cycles[j]._cycleEndedTimeStamp.sub(holderWallet[_msgSender()].isEnableForRewards[j].disabledTimeStamp) < 7 days)\n                                    continue;\n                            }\n                            else{\n                                 continue;\n                            }\n                        }\n                            \n                        uint _cyclePerShare = _getSharePerValue(j);\n                        uint _cyclebalance = holderWallet[_msgSender()]._cycleTrack[i]._pastBalance;\n                        if(j == _toCycle) _cyclebalance = holderWallet[_msgSender()]._cycleTrack[i]._currentCycleBalance;\n                        uint _cycleReward = _calculateReward( _cyclePerShare, _cyclebalance);\n                        _totalReward = _totalReward.add(_cycleReward);\n                        holderWallet[_msgSender()].isEnableForRewards[j].disabledTimeStamp =  cycles[j]._cycleEndedTimeStamp;\n                    }\n                }\n                else{\n                    break;\n                }\n                \n                totalCycleCount = totalCycleCount.add(_toCycle);\n                holderWallet[_msgSender()]._lastWithdrawnCycle++;\n            }\n            \n            \n        }\n        \n        if(totalCycleCount < estimatedLoop){\n            if(holderWallet[_msgSender()]._cycleTrack[holderWallet[_msgSender()]._lastestCycle]._toCycle < currCycle){\n                if((currCycle != 1) && (holderWallet[_msgSender()]._cycleTrack[holderWallet[_msgSender()]._lastestCycle]._toCycle <= currCycle.sub(1)))\n                {\n                    uint remainingLoop = uint(estimatedLoop).sub(totalCycleCount);\n                    _cyclesUntill =  (holderWallet[_msgSender()]._cycleTrack[holderWallet[_msgSender()]._lastestCycle]._toCycle.add(remainingLoop) > currCycle.sub(1)) ? currCycle.sub(1) : holderWallet[_msgSender()]._cycleTrack[holderWallet[_msgSender()]._lastestCycle]._toCycle.add(remainingLoop);            \n                    \n                    for(uint i=(holderWallet[_msgSender()]._cycleTrack[holderWallet[_msgSender()]._lastestCycle]._toCycle == 0) ? 1 : holderWallet[_msgSender()]._cycleTrack[holderWallet[_msgSender()]._lastestCycle]._toCycle;i<=_cyclesUntill;i++){\n                        if((holderWallet[_msgSender()]._cycleTrack[holderWallet[_msgSender()]._lastestCycle]._toCycle == 0) && (DXB.balanceOf(_msgSender()) == 0 )) { continue; }\n                        if((holderWallet[_msgSender()].isEnableForRewards[i].isEnableToClaim)){\n                            if(holderWallet[_msgSender()].isEnableForRewards[i].disabledTimeStamp < cycles[i]._cycleEndedTimeStamp){\n                                if(cycles[i]._cycleEndedTimeStamp.sub(holderWallet[_msgSender()].isEnableForRewards[i].disabledTimeStamp) < 7 days)\n                                    continue;\n                            }\n                            else{\n                                 continue;\n                            }\n                        }\n                        \n                        uint _cycleShare = holderWallet[_msgSender()]._cycleTrack[holderWallet[_msgSender()]._lastestCycle]._currentCycleBalance;\n                        if(holderWallet[_msgSender()]._lastestCycle == 0) _cycleShare = DXB.balanceOf(_msgSender());\n                        \n                        _totalReward = _totalReward.add(_calculateReward( _getSharePerValue(i), _cycleShare));\n                        holderWallet[_msgSender()].isEnableForRewards[i].isEnableToClaim = true;\n                        holderWallet[_msgSender()].isEnableForRewards[i].disabledTimeStamp = cycles[i]._cycleEndedTimeStamp;\n                    }\n                }\n            }\n        }\n        \n        require(_totalReward > 0,\"RewardPool :: withdrawReward: no pending rewards\");\n        require(payable(_msgSender()).send(_totalReward),\"Reward pool :: withdraw claim failed\");\n        emit rewardWithdrawal( _msgSender(), _totalReward, block.timestamp);\n        return true;\n    }\n    \n    /** \n     * @dev Calls updateHolderLiquidity() function to update holder cycles.\n     * @param _holder holder address\n     * @param _flag flag 1 - sender , 2 - receiver\n     * @return bool\n     */\n    function updateHolderLiquidity( address _holder, uint8 _flag) external onlyAuth() returns (bool) {\n        require((_flag == 1) || (_flag == 2),\"RewardPool :: updateHolderLiquidity: flag must be 1 or 2\");\n        if(holderWallet[_holder]._timestamp < block.timestamp){\n            if(holderWallet[_holder]._timestamp == 0){ // only a initial receiver wallet. i. _flag - 2\n                holderWallet[_holder]._currentDXBBalance = DXB.balanceOf(_holder);\n                holderWallet[_holder]._timestamp = block.timestamp.add(7 days);\n                holderWallet[_holder].isEnableForRewards[currCycle].isEnableToClaim = true;\n            }\n            else{\n                holderWallet[_holder]._timestamp = block.timestamp.add(7 days);\n                \n                if(holderWallet[_holder].lastUpdatedCycle < currCycle){\n                    holderWallet[_holder]._lastestCycle++;\n                    \n                    holderWallet[_holder]._cycleTrack[holderWallet[_holder]._lastestCycle] = (holdercycleTrackStruct( holderWallet[_holder].lastUpdatedCycle, currCycle, holderWallet[_holder]._currentDXBBalance, holderWallet[_holder]._currentDXBBalance));    \n                    holderWallet[_holder].lastUpdatedCycle = currCycle;\n                }\n                else if((holderWallet[_holder].lastUpdatedCycle == currCycle)){\n                    holderWallet[_holder]._cycleTrack[holderWallet[_holder]._lastestCycle]._currentCycleBalance = holderWallet[_holder]._currentDXBBalance;\n                }\n                \n                holderWallet[_holder]._currentDXBBalance = DXB.balanceOf(_holder);\n                \n                if(_flag == 1){\n                    holderWallet[_holder].isEnableForRewards[currCycle].isEnableToClaim = true;// true    \n                    holderWallet[_holder].isEnableForRewards[currCycle].disabledTimeStamp = block.timestamp;\n                }\n                else\n                    holderWallet[_holder].isEnableForRewards[currCycle].isEnableToClaim = false;// false\n            }\n        }\n        else{\n            if(_flag == 1)\n                holderWallet[_holder].isEnableForRewards[currCycle].isEnableToClaim = true;// true\n                holderWallet[_holder].isEnableForRewards[currCycle].disabledTimeStamp = block.timestamp;\n        }\n        return true;\n    }\n    \n    function getHolderCycleDetails( address _holder, uint cycle) public view returns (uint,uint,uint,uint) {\n        return (holderWallet[_holder]._cycleTrack[cycle]._fromCycle,holderWallet[_holder]._cycleTrack[cycle]._toCycle,holderWallet[_holder]._cycleTrack[cycle]._pastBalance,holderWallet[_holder]._cycleTrack[cycle]._currentCycleBalance);\n    }\n    \n    function getHolderCycleRewardEligibleDetails( address _holder, uint _cycle) public view returns (bool ,uint) {\n        return (holderWallet[_holder].isEnableForRewards[_cycle].isEnableToClaim,holderWallet[_holder].isEnableForRewards[_cycle].disabledTimeStamp);\n    }\n    \n    function emergency( address token, address _to, uint _amount) public onlyOwner returns (bool) {\n        require(emergencyWithdrawalPeriod < block.timestamp, \"RewardPool :: emergency : wait till 24hrs ends\");\n        address _contractAdd = address(this);\n        \n        if(token == address(0)){\n            require(_contractAdd.balance >= _amount,\"insufficient BNB\");\n            payable(_to).transfer(_amount);\n        }\n        else{\n            require( IBEP20(token).balanceOf(_contractAdd) >= _amount,\"insufficient Token balance\");\n            IBEP20(token).transfer(_to, _amount);\n        }\n        \n        emergencyWithdrawalPeriod = block.timestamp.add(1 days);\n        return true;\n    }\n    \n}\n",
  "sourcePath": "/home/devel-mohan/dxB/contracts/reward.sol",
  "compiler": {
    "name": "solc",
    "version": "0.6.12+commit.27d51765.Emscripten.clang"
  },
  "schemaVersion": "3.3.4",
  "updatedAt": "2021-07-23T09:40:22.971Z",
  "devdoc": {
    "kind": "dev",
    "methods": {
      "_calculateReward(uint256,uint256)": {
        "details": "Calls _calculateReward() function to calculate reward.",
        "params": {
          "_currentPerShare": "current reward per share",
          "_cycleDXBBalance": "balance of DXB"
        },
        "returns": {
          "_0": "uint"
        }
      },
      "_getSharePerValue(uint256)": {
        "details": "Calls _getSharePerValue() function to value for a share.",
        "params": {
          "cycle": "cycles"
        },
        "returns": {
          "_0": "uint"
        }
      },
      "owner()": {
        "details": "Returns the address of the current owner."
      },
      "renounceOwnership()": {
        "details": "Leaves the contract without owner. It will not be possible to call `onlyOwner` functions anymore. Can only be called by the current owner. NOTE: Renouncing ownership will leave the contract without an owner, thereby removing any functionality that is only available to the owner."
      },
      "transferOwnership(address)": {
        "details": "Transfers ownership of the contract to a new account (`newOwner`). Can only be called by the current owner."
      },
      "updateAuth(address,bool)": {
        "details": "Calls updateAuth() function to set authentication.",
        "params": {
          "_auth": "authentication address.",
          "_status": "true to enable."
        }
      },
      "updateHolderLiquidity(address,uint8)": {
        "details": "Calls updateHolderLiquidity() function to update holder cycles.",
        "params": {
          "_flag": "flag 1 - sender , 2 - receiver",
          "_holder": "holder address"
        },
        "returns": {
          "_0": "bool"
        }
      },
      "updatePool(uint256)": {
        "details": "Calls updatePool() function to update pool.",
        "returns": {
          "_0": "bool"
        }
      },
      "updatedDXB(address)": {
        "details": "Calls updatedDXB() function to set tokens .",
        "params": {
          "_DXB": "DXB token."
        },
        "returns": {
          "_0": "bool"
        }
      },
      "viewClaimReward(address)": {
        "details": "Calls viewClaimReward() function to view claims to withdraw.",
        "params": {
          "_holder": "holder address"
        },
        "returns": {
          "_0": "uint"
        }
      },
      "withdrawReward()": {
        "details": "Calls withdrawReward() function to claims the rewards.",
        "returns": {
          "_0": "bool"
        }
      }
    },
    "version": 1
  },
  "userdoc": {
    "kind": "user",
    "methods": {},
    "version": 1
  }
}