{
  "contractName": "TeamVault",
  "abi": [
    {
      "inputs": [
        {
          "internalType": "address",
          "name": "_teamOneWallet",
          "type": "address"
        },
        {
          "internalType": "address",
          "name": "_teamTwoWallet",
          "type": "address"
        },
        {
          "internalType": "address",
          "name": "_teamThreeWallet",
          "type": "address"
        },
        {
          "internalType": "address",
          "name": "_rewardPool",
          "type": "address"
        }
      ],
      "stateMutability": "nonpayable",
      "type": "constructor"
    },
    {
      "anonymous": false,
      "inputs": [
        {
          "indexed": true,
          "internalType": "address",
          "name": "previousOwner",
          "type": "address"
        },
        {
          "indexed": true,
          "internalType": "address",
          "name": "newOwner",
          "type": "address"
        }
      ],
      "name": "OwnershipTransferred",
      "type": "event"
    },
    {
      "anonymous": false,
      "inputs": [
        {
          "indexed": false,
          "internalType": "address",
          "name": "_team",
          "type": "address"
        },
        {
          "indexed": false,
          "internalType": "uint256",
          "name": "_amount",
          "type": "uint256"
        }
      ],
      "name": "rewardClaimed",
      "type": "event"
    },
    {
      "anonymous": false,
      "inputs": [
        {
          "indexed": true,
          "internalType": "address",
          "name": "_team",
          "type": "address"
        },
        {
          "indexed": false,
          "internalType": "uint256",
          "name": "_amount",
          "type": "uint256"
        }
      ],
      "name": "teamWalletDiv",
      "type": "event"
    },
    {
      "inputs": [],
      "name": "DXB",
      "outputs": [
        {
          "internalType": "address",
          "name": "",
          "type": "address"
        }
      ],
      "stateMutability": "view",
      "type": "function"
    },
    {
      "inputs": [],
      "name": "_isBalanceUpdated",
      "outputs": [
        {
          "internalType": "bool",
          "name": "",
          "type": "bool"
        }
      ],
      "stateMutability": "view",
      "type": "function"
    },
    {
      "inputs": [],
      "name": "owner",
      "outputs": [
        {
          "internalType": "address",
          "name": "",
          "type": "address"
        }
      ],
      "stateMutability": "view",
      "type": "function"
    },
    {
      "inputs": [],
      "name": "renounceOwnership",
      "outputs": [],
      "stateMutability": "nonpayable",
      "type": "function"
    },
    {
      "inputs": [],
      "name": "rewardPool",
      "outputs": [
        {
          "internalType": "address",
          "name": "",
          "type": "address"
        }
      ],
      "stateMutability": "view",
      "type": "function"
    },
    {
      "inputs": [],
      "name": "startTime",
      "outputs": [
        {
          "internalType": "uint256",
          "name": "",
          "type": "uint256"
        }
      ],
      "stateMutability": "view",
      "type": "function"
    },
    {
      "inputs": [
        {
          "internalType": "address",
          "name": "",
          "type": "address"
        }
      ],
      "name": "teamVault",
      "outputs": [
        {
          "internalType": "uint256",
          "name": "_balances",
          "type": "uint256"
        },
        {
          "internalType": "uint256",
          "name": "_pendingReward",
          "type": "uint256"
        },
        {
          "internalType": "bool",
          "name": "_isExist",
          "type": "bool"
        }
      ],
      "stateMutability": "view",
      "type": "function"
    },
    {
      "inputs": [
        {
          "internalType": "uint256",
          "name": "",
          "type": "uint256"
        }
      ],
      "name": "teamWalletsList",
      "outputs": [
        {
          "internalType": "address",
          "name": "",
          "type": "address"
        }
      ],
      "stateMutability": "view",
      "type": "function"
    },
    {
      "inputs": [],
      "name": "timeLock",
      "outputs": [
        {
          "internalType": "uint256",
          "name": "",
          "type": "uint256"
        }
      ],
      "stateMutability": "view",
      "type": "function"
    },
    {
      "inputs": [
        {
          "internalType": "address",
          "name": "newOwner",
          "type": "address"
        }
      ],
      "name": "transferOwnership",
      "outputs": [],
      "stateMutability": "nonpayable",
      "type": "function"
    },
    {
      "stateMutability": "payable",
      "type": "receive"
    },
    {
      "inputs": [
        {
          "internalType": "address",
          "name": "_DXB",
          "type": "address"
        }
      ],
      "name": "updatedDXB",
      "outputs": [],
      "stateMutability": "nonpayable",
      "type": "function"
    },
    {
      "inputs": [],
      "name": "updateTeamBalance",
      "outputs": [],
      "stateMutability": "nonpayable",
      "type": "function"
    },
    {
      "inputs": [],
      "name": "getReward",
      "outputs": [
        {
          "internalType": "bool",
          "name": "",
          "type": "bool"
        }
      ],
      "stateMutability": "nonpayable",
      "type": "function"
    },
    {
      "inputs": [],
      "name": "claimDXB",
      "outputs": [
        {
          "internalType": "bool",
          "name": "",
          "type": "bool"
        }
      ],
      "stateMutability": "nonpayable",
      "type": "function"
    },
    {
      "inputs": [
        {
          "internalType": "address",
          "name": "_teamWallet",
          "type": "address"
        }
      ],
      "name": "viewTeamReward",
      "outputs": [
        {
          "internalType": "uint256",
          "name": "",
          "type": "uint256"
        }
      ],
      "stateMutability": "view",
      "type": "function"
    }
  ],
  "bytecode": "0x608060405261a8c0600455426005556006805460ff1916905534801561002457600080fd5b506040516117b63803806117b68339818101604052608081101561004757600080fd5b50805160208201516040830151606090930151919290916000610068610183565b600080546001600160a01b0319166001600160a01b0383169081178255604051929350917f8be0079c531659141344cd1fd0a4f28419497f9722a3daafe3b4186f6b6457e0908290a35060078054600181810183557fa66cc928b5edb82af9bd49922954155ab7b0942694bea4ce44661d9a8736c68891820180546001600160a01b039889166001600160a01b031991821681179092558454808401865584018054988a16988216891790558454808401909555939092018054958816958416861790556000918252600860205260408083206002908101805460ff19908116851790915597845281842081018054891684179055958352909120909301805490941690921790925560038054929093169116179055610187565b3390565b611620806101966000396000f3fe6080604052600436106100ec5760003560e01c80638da5cb5b1161008a578063d085835a11610059578063d085835a146102b2578063d50b84aa146102c7578063de2afc02146102dc578063f2fde38b146102f1576100f3565b80638da5cb5b1461020b5780639c87b87614610220578063b02a57d81461024a578063c7f556831461025f576100f3565b806360d6d962116100c657806360d6d9621461019b57806366666aa9146101b0578063715018a6146101e157806378e97925146101f6576100f3565b80633af8eca8146100f85780633d18b9121461012d5780635cb8c90914610156576100f3565b366100f357005b600080fd5b34801561010457600080fd5b5061012b6004803603602081101561011b57600080fd5b50356001600160a01b0316610324565b005b34801561013957600080fd5b506101426103e3565b604080519115158252519081900360200190f35b34801561016257600080fd5b506101896004803603602081101561017957600080fd5b50356001600160a01b0316610972565b60408051918252519081900360200190f35b3480156101a757600080fd5b50610142610b20565b3480156101bc57600080fd5b506101c5610b29565b604080516001600160a01b039092168252519081900360200190f35b3480156101ed57600080fd5b5061012b610b38565b34801561020257600080fd5b50610189610bda565b34801561021757600080fd5b506101c5610be0565b34801561022c57600080fd5b506101c56004803603602081101561024357600080fd5b5035610bef565b34801561025657600080fd5b506101c5610c16565b34801561026b57600080fd5b506102926004803603602081101561028257600080fd5b50356001600160a01b0316610c25565b604080519384526020840192909252151582820152519081900360600190f35b3480156102be57600080fd5b50610189610c49565b3480156102d357600080fd5b50610142610c4f565b3480156102e857600080fd5b5061012b610e55565b3480156102fd57600080fd5b5061012b6004803603602081101561031457600080fd5b50356001600160a01b0316611051565b61032c611149565b6000546001600160a01b0390811691161461037c576040805162461bcd60e51b81526020600482018190526024820152600080516020611570833981519152604482015290519081900360640190fd5b6001600160a01b0381166103c15760405162461bcd60e51b81526004018080602001828103825260348152602001806114ca6034913960400191505060405180910390fd5b600280546001600160a01b0319166001600160a01b0392909216919091179055565b6000600860006103f1611149565b6001600160a01b0316815260208101919091526040016000206002015460ff168061043b575061041f610be0565b6001600160a01b0316610430611149565b6001600160a01b0316145b6104765760405162461bcd60e51b815260040180806020018281038252602b815260200180611524602b913960400191505060405180910390fd5b600354604080516311eaa9f960e01b815230600482015290516001600160a01b03909216916311eaa9f991602480820192602092909190829003018186803b1580156104c157600080fd5b505afa1580156104d5573d6000803e3d6000fd5b505050506040513d60208110156104eb57600080fd5b5051158015610520575060086000610501611149565b6001600160a01b03168152602081019190915260400160002060010154155b1561052d5750600061096f565b60035460408051631910b78b60e31b8152905130928331926001600160a01b039091169163c885bc58916004808201926020929091908290030181600087803b15801561057957600080fd5b505af115801561058d573d6000803e3d6000fd5b505050506040513d60208110156105a357600080fd5b50600090506105bc6001600160a01b038416318361114d565b9050801561081757600254604080516370a0823160e01b815230600482015290516000926001600160a01b0316916370a08231916024808301926020929190829003018186803b15801561060f57600080fd5b505afa158015610623573d6000803e3d6000fd5b505050506040513d602081101561063957600080fd5b50519050600061064a826002611198565b9050610654611471565b81610660816002611198565b61066b846002611198565b604084015260208301528152600061068385856111da565b90506106f46106b4670de0b6b3a76400006106ae64e8d4a51000818760005b602002015187906111fd565b90611198565b6008600060076000815481106106c657fe5b60009182526020808320909101546001600160a01b0316835282019290925260400190206001015490611256565b60086000600760008154811061070657fe5b60009182526020808320909101546001600160a01b03168352820192909252604001902060019081019190915561076b9061075990670de0b6b3a7640000906106ae9064e8d4a5100090829088906106a2565b6008600060076001815481106106c657fe5b60086000600760018154811061077d57fe5b60009182526020808320909101546001600160a01b031683528201929092526040019020600101556107d86107c6670de0b6b3a76400006106ae64e8d4a51000818760026106a2565b6008600060076002815481106106c657fe5b6008600060076002815481106107ea57fe5b60009182526020808320909101546001600160a01b03168352820192909252604001902060010155505050505b600060086000610825611149565b6001600160a01b03166001600160a01b03168152602001908152602001600020600101541180156108765750610859610be0565b6001600160a01b031661086a611149565b6001600160a01b031614155b1561096757600060086000610889611149565b6001600160a01b03166001600160a01b031681526020019081526020016000206001015490506000600860006108bd611149565b6001600160a01b031681526020810191909152604001600020600101556108e2611149565b6001600160a01b03166108fc829081150290604051600060405180830381858888f1935050505015801561091a573d6000803e3d6000fd5b507f83b78188b13346b2ffb484da70d42ee27de7fbf9f2bd8045269e10ed643ccd76610944611149565b604080516001600160a01b039092168252602082018490528051918290030190a1505b600193505050505b90565b600354604080516311eaa9f960e01b8152306004820152905160009283926001600160a01b03909116916311eaa9f991602480820192602092909190829003018186803b1580156109c257600080fd5b505afa1580156109d6573d6000803e3d6000fd5b505050506040513d60208110156109ec57600080fd5b5051600254604080516370a0823160e01b815230600482015290519293506000926001600160a01b03909216916370a0823191602480820192602092909190829003018186803b158015610a3f57600080fd5b505afa158015610a53573d6000803e3d6000fd5b505050506040513d6020811015610a6957600080fd5b505190506000610a7983836111da565b90506000610a88836002611198565b92506007600081548110610a9857fe5b6000918252602090912001546001600160a01b0387811691161415610abe575081610acc565b610ac9836002611198565b90505b6000610aeb670de0b6b3a76400006106ae64e8d4a510008187876111fd565b6001600160a01b038816600090815260086020526040902060010154909150610b15908290611256565b979650505050505050565b60065460ff1681565b6003546001600160a01b031681565b610b40611149565b6000546001600160a01b03908116911614610b90576040805162461bcd60e51b81526020600482018190526024820152600080516020611570833981519152604482015290519081900360640190fd5b600080546040516001600160a01b03909116907f8be0079c531659141344cd1fd0a4f28419497f9722a3daafe3b4186f6b6457e0908390a3600080546001600160a01b0319169055565b60055481565b6000546001600160a01b031690565b60078181548110610bfc57fe5b6000918252602090912001546001600160a01b0316905081565b6002546001600160a01b031681565b60086020526000908152604090208054600182015460029092015490919060ff1683565b60045481565b600060086000610c5d611149565b6001600160a01b0316815260208101919091526040016000206002015460ff16610cb85760405162461bcd60e51b815260040180806020018281038252602a815260200180611590602a913960400191505060405180910390fd5b60055415801590610cde575042610cdc60045460055461125690919063ffffffff16565b105b610d195760405162461bcd60e51b81526004018080602001828103825260318152602001806115ba6031913960400191505060405180910390fd5b60086000610d25611149565b6001600160a01b03908116825260208083019390935260409182016000205460025483516370a0823160e01b8152306004820152935191949216926370a08231926024808301939192829003018186803b158015610d8257600080fd5b505afa158015610d96573d6000803e3d6000fd5b505050506040513d6020811015610dac57600080fd5b50511015610deb5760405162461bcd60e51b815260040180806020018281038252603a815260200180611490603a913960400191505060405180910390fd5b600060086000610df9611149565b6001600160a01b0316815260208101919091526040016000908120549150600881610e22611149565b6001600160a01b03168152602081019190915260400160002055610e4d610e47611149565b826112b0565b600191505090565b610e5d611149565b6000546001600160a01b03908116911614610ead576040805162461bcd60e51b81526020600482018190526024820152600080516020611570833981519152604482015290519081900360640190fd5b60065460ff1615610efc576040805162461bcd60e51b815260206004820152601460248201527343616e20757064617465206f6e6c79206f6e636560601b604482015290519081900360640190fd5b600254604080516370a0823160e01b815230600482015290516000926001600160a01b0316916370a08231916024808301926020929190829003018186803b158015610f4757600080fd5b505afa158015610f5b573d6000803e3d6000fd5b505050506040513d6020811015610f7157600080fd5b505190506000610f82826002611198565b905080600860006007600081548110610f9757fe5b60009182526020808320909101546001600160a01b03168352820192909252604001902055610fc7816002611198565b600860006007600181548110610fd957fe5b60009182526020808320909101546001600160a01b03168352820192909252604001902055611009816002611198565b60086000600760028154811061101b57fe5b60009182526020808320909101546001600160a01b0316835282019290925260400190205550506006805460ff19166001179055565b611059611149565b6000546001600160a01b039081169116146110a9576040805162461bcd60e51b81526020600482018190526024820152600080516020611570833981519152604482015290519081900360640190fd5b6001600160a01b0381166110ee5760405162461bcd60e51b81526004018080602001828103825260268152602001806114fe6026913960400191505060405180910390fd5b600080546040516001600160a01b03808516939216917f8be0079c531659141344cd1fd0a4f28419497f9722a3daafe3b4186f6b6457e091a3600080546001600160a01b0319166001600160a01b0392909216919091179055565b3390565b600061118f83836040518060400160405280601e81526020017f536166654d6174683a207375627472616374696f6e206f766572666c6f770000815250611375565b90505b92915050565b600061118f83836040518060400160405280601a81526020017f536166654d6174683a206469766973696f6e206279207a65726f00000000000081525061140c565b600061118f826106ae670de0b6b3a76400006111fb8764e8d4a510006111fd565b905b60008261120c57506000611192565b8282028284828161121957fe5b041461118f5760405162461bcd60e51b815260040180806020018281038252602181526020018061154f6021913960400191505060405180910390fd5b60008282018381101561118f576040805162461bcd60e51b815260206004820152601b60248201527f536166654d6174683a206164646974696f6e206f766572666c6f770000000000604482015290519081900360640190fd5b6002546040805163a9059cbb60e01b81526001600160a01b038581166004830152602482018590529151919092169163a9059cbb9160448083019260209291908290030181600087803b15801561130657600080fd5b505af115801561131a573d6000803e3d6000fd5b505050506040513d602081101561133057600080fd5b50506040805182815290516001600160a01b038416917f158a8b5a66197d29b4f8b7b48ec670cc577776b6bb65566c923794556044caed919081900360200190a25050565b600081848411156114045760405162461bcd60e51b81526004018080602001828103825283818151815260200191508051906020019080838360005b838110156113c95781810151838201526020016113b1565b50505050905090810190601f1680156113f65780820380516001836020036101000a031916815260200191505b509250505060405180910390fd5b505050900390565b6000818361145b5760405162461bcd60e51b81526020600482018181528351602484015283519092839260449091019190850190808383600083156113c95781810151838201526020016113b1565b50600083858161146757fe5b0495945050505050565b6040518060600160405280600390602082028036833750919291505056fe5465616d5661756c74203a3a20636c61696d445842203a20696e73756666696369656e742062616c616e636520746f20646973747269627574655465616d5661756c74203a3a2075706461746564445842203a20445842206164647265737320697320616c7265616479207365744f776e61626c653a206e6577206f776e657220697320746865207a65726f20616464726573735465616d5661756c74203a3a20676574526577617264203a20696e76616c6964207465616d207661756c74536166654d6174683a206d756c7469706c69636174696f6e206f766572666c6f774f776e61626c653a2063616c6c6572206973206e6f7420746865206f776e65725465616d5661756c74203a3a20636c61696d445842203a20696e76616c6964207465616d207661756c745465616d5661756c74203a3a20636c61696d445842203a20526571756972657320313830206461797320746f2070617373a2646970667358221220eff680c524af2f509e3c5c897aa6e685e87106a47420245299fbd6125296d09b64736f6c634300060c0033",
  "immutableReferences": {},
  "source": "pragma solidity 0.6.12;\n//SPDX-License-Identifier: UNLICENSED\n\nlibrary SafeMath {\n    /**\n     * @dev Returns the addition of two unsigned integers, reverting on\n     * overflow.\n     *\n     * Counterpart to Solidity's `+` operator.\n     *\n     * Requirements:\n     *\n     * - Addition cannot overflow.\n     */\n    function add(uint256 a, uint256 b) internal pure returns (uint256) {\n        uint256 c = a + b;\n        require(c >= a, \"SafeMath: addition overflow\");\n\n        return c;\n    }\n\n    /**\n     * @dev Returns the subtraction of two unsigned integers, reverting on\n     * overflow (when the result is negative).\n     *\n     * Counterpart to Solidity's `-` operator.\n     *\n     * Requirements:\n     *\n     * - Subtraction cannot overflow.\n     */\n    function sub(uint256 a, uint256 b) internal pure returns (uint256) {\n        return sub(a, b, \"SafeMath: subtraction overflow\");\n    }\n\n    /**\n     * @dev Returns the subtraction of two unsigned integers, reverting with custom message on\n     * overflow (when the result is negative).\n     *\n     * Counterpart to Solidity's `-` operator.\n     *\n     * Requirements:\n     *\n     * - Subtraction cannot overflow.\n     */\n    function sub(uint256 a, uint256 b, string memory errorMessage) internal pure returns (uint256) {\n        require(b <= a, errorMessage);\n        uint256 c = a - b;\n\n        return c;\n    }\n\n    /**\n     * @dev Returns the multiplication of two unsigned integers, reverting on\n     * overflow.\n     *\n     * Counterpart to Solidity's `*` operator.\n     *\n     * Requirements:\n     *\n     * - Multiplication cannot overflow.\n     */\n    function mul(uint256 a, uint256 b) internal pure returns (uint256) {\n        // Gas optimization: this is cheaper than requiring 'a' not being zero, but the\n        // benefit is lost if 'b' is also tested.\n        // See: https://github.com/OpenZeppelin/openzeppelin-contracts/pull/522\n        if (a == 0) {\n            return 0;\n        }\n\n        uint256 c = a * b;\n        require(c / a == b, \"SafeMath: multiplication overflow\");\n\n        return c;\n    }\n\n    /**\n     * @dev Returns the integer division of two unsigned integers. Reverts on\n     * division by zero. The result is rounded towards zero.\n     *\n     * Counterpart to Solidity's `/` operator. Note: this function uses a\n     * `revert` opcode (which leaves remaining gas untouched) while Solidity\n     * uses an invalid opcode to revert (consuming all remaining gas).\n     *\n     * Requirements:\n     *\n     * - The divisor cannot be zero.\n     */\n    function div(uint256 a, uint256 b) internal pure returns (uint256) {\n        return div(a, b, \"SafeMath: division by zero\");\n    }\n\n    /**\n     * @dev Returns the integer division of two unsigned integers. Reverts with custom message on\n     * division by zero. The result is rounded towards zero.\n     *\n     * Counterpart to Solidity's `/` operator. Note: this function uses a\n     * `revert` opcode (which leaves remaining gas untouched) while Solidity\n     * uses an invalid opcode to revert (consuming all remaining gas).\n     *\n     * Requirements:\n     *\n     * - The divisor cannot be zero.\n     */\n    function div(uint256 a, uint256 b, string memory errorMessage) internal pure returns (uint256) {\n        require(b > 0, errorMessage);\n        uint256 c = a / b;\n        // assert(a == b * c + a % b); // There is no case in which this doesn't hold\n\n        return c;\n    }\n\n    /**\n     * @dev Returns the remainder of dividing two unsigned integers. (unsigned integer modulo),\n     * Reverts when dividing by zero.\n     *\n     * Counterpart to Solidity's `%` operator. This function uses a `revert`\n     * opcode (which leaves remaining gas untouched) while Solidity uses an\n     * invalid opcode to revert (consuming all remaining gas).\n     *\n     * Requirements:\n     *\n     * - The divisor cannot be zero.\n     */\n    function mod(uint256 a, uint256 b) internal pure returns (uint256) {\n        return mod(a, b, \"SafeMath: modulo by zero\");\n    }\n\n    /**\n     * @dev Returns the remainder of dividing two unsigned integers. (unsigned integer modulo),\n     * Reverts with custom message when dividing by zero.\n     *\n     * Counterpart to Solidity's `%` operator. This function uses a `revert`\n     * opcode (which leaves remaining gas untouched) while Solidity uses an\n     * invalid opcode to revert (consuming all remaining gas).\n     *\n     * Requirements:\n     *\n     * - The divisor cannot be zero.\n     */\n    function mod(uint256 a, uint256 b, string memory errorMessage) internal pure returns (uint256) {\n        require(b != 0, errorMessage);\n        return a % b;\n    }\n}\n\nabstract contract Context {\n    function _msgSender() internal view virtual returns (address) {\n        return msg.sender;\n    }\n\n    function _msgData() internal view virtual returns (bytes memory) {\n        this; // silence state mutability warning without generating bytecode - see https://github.com/ethereum/solidity/issues/2691\n        return msg.data;\n    }\n}\n\ncontract Ownable is Context {\n    address private _owner;\n    address private _previousOwner;\n\n    event OwnershipTransferred(address indexed previousOwner, address indexed newOwner);\n\n    /**\n     * @dev Initializes the contract setting the deployer as the initial owner.\n     */\n    constructor () internal {\n        address msgSender = _msgSender();\n        _owner = msgSender;\n        emit OwnershipTransferred(address(0), msgSender);\n    }\n\n    /**\n     * @dev Returns the address of the current owner.\n     */\n    function owner() public view returns (address) {\n        return _owner;\n    }\n\n    /**\n     * @dev Throws if called by any account other than the owner.\n     */\n    modifier onlyOwner() {\n        require(_owner == _msgSender(), \"Ownable: caller is not the owner\");\n        _;\n    }\n\n     /**\n     * @dev Leaves the contract without owner. It will not be possible to call\n     * `onlyOwner` functions anymore. Can only be called by the current owner.\n     *\n     * NOTE: Renouncing ownership will leave the contract without an owner,\n     * thereby removing any functionality that is only available to the owner.\n     */\n    function renounceOwnership() public virtual onlyOwner {\n        emit OwnershipTransferred(_owner, address(0));\n        _owner = address(0);\n    }\n\n    /**\n     * @dev Transfers ownership of the contract to a new account (`newOwner`).\n     * Can only be called by the current owner.\n     */\n    function transferOwnership(address newOwner) public virtual onlyOwner {\n        require(newOwner != address(0), \"Ownable: new owner is the zero address\");\n        emit OwnershipTransferred(_owner, newOwner);\n        _owner = newOwner;\n    }\n}\n\ninterface IERC20 {\n\n    function totalSupply() external view returns (uint256);\n\n    /**\n     * @dev Returns the amount of tokens owned by `account`.\n     */\n    function balanceOf(address account) external view returns (uint256);\n\n    /**\n     * @dev Moves `amount` tokens from the caller's account to `recipient`.\n     *\n     * Returns a boolean value indicating whether the operation succeeded.\n     *\n     * Emits a {Transfer} event.\n     */\n    function transfer(address recipient, uint256 amount) external returns (bool);\n\n    /**\n     * @dev Returns the remaining number of tokens that `spender` will be\n     * allowed to spend on behalf of `owner` through {transferFrom}. This is\n     * zero by default.\n     *\n     * This value changes when {approve} or {transferFrom} are called.\n     */\n    function allowance(address owner, address spender) external view returns (uint256);\n\n    /**\n     * @dev Sets `amount` as the allowance of `spender` over the caller's tokens.\n     *\n     * Returns a boolean value indicating whether the operation succeeded.\n     *\n     * IMPORTANT: Beware that changing an allowance with this method brings the risk\n     * that someone may use both the old and the new allowance by unfortunate\n     * transaction ordering. One possible solution to mitigate this race\n     * condition is to first reduce the spender's allowance to 0 and set the\n     * desired value afterwards:\n     * https://github.com/ethereum/EIPs/issues/20#issuecomment-263524729\n     *\n     * Emits an {Approval} event.\n     */\n    function approve(address spender, uint256 amount) external returns (bool);\n\n    /**\n     * @dev Moves `amount` tokens from `sender` to `recipient` using the\n     * allowance mechanism. `amount` is then deducted from the caller's\n     * allowance.\n     *\n     * Returns a boolean value indicating whether the operation succeeded.\n     *\n     * Emits a {Transfer} event.\n     */\n    function transferFrom(address sender, address recipient, uint256 amount) external returns (bool);\n    \n    function moveBNBToWallet() external returns (bool);\n    \n    function balanceOfBNB( address owner) external view returns (uint);\n    \n    function getOwnerBNBValue() external view returns (uint);\n    \n    /**\n     * @dev Emitted when `value` tokens are moved from one account (`from`) to\n     * another (`to`).\n     *\n     * Note that `value` may be zero.\n     */\n    event Transfer(address indexed from, address indexed to, uint256 value);\n\n    /**\n     * @dev Emitted when the allowance of a `spender` for an `owner` is set by\n     * a call to {approve}. `value` is the new allowance.\n     */\n    event Approval(address indexed owner, address indexed spender, uint256 value);\n}\n\ninterface RewardPool {\n    function withdrawReward() external returns (uint);\n    function viewClaimReward( address _holder) external view returns (uint);\n}\n\ncontract TeamVault is Ownable {\n    using SafeMath for uint;\n    \n    event rewardClaimed( address _team, uint _amount);\n    event teamWalletDiv( address indexed _team, uint _amount);\n    \n    address public DXB;\n    address public rewardPool;\n    \n    uint public timeLock = 43200;//180 days;\n    uint public startTime = block.timestamp;\n    \n    bool public _isBalanceUpdated = false;\n    \n    address[] public teamWalletsList;\n    \n    struct teamwalletStruct {\n        uint _balances;\n        uint _pendingReward;\n        bool _isExist;\n    }\n    \n    mapping(address => teamwalletStruct) public teamVault;\n    \n    constructor( address _teamOneWallet, address _teamTwoWallet, address _teamThreeWallet, address _rewardPool) public {\n        teamWalletsList.push(_teamOneWallet);\n        teamWalletsList.push(_teamTwoWallet);\n        teamWalletsList.push(_teamThreeWallet);\n        \n        teamVault[_teamOneWallet]._isExist = true;\n        teamVault[_teamTwoWallet]._isExist = true;\n        teamVault[_teamThreeWallet]._isExist = true;\n        \n        rewardPool = _rewardPool;\n    }\n    \n    receive() external payable {\n    }\n    \n    /** \n     * @dev Calls updateDXB() function to set DXB address.\n     * @param _DXB address of DXB.\n    */\n    function updatedDXB( address _DXB) public onlyOwner {\n        require((_DXB != address(0)), \"TeamVault :: updatedDXB : DXB address is already set\");\n        DXB = _DXB;\n    }\n    \n    function updateTeamBalance() public onlyOwner {\n        require(_isBalanceUpdated == false, \"Can update only once\");\n        uint _balanceOf = IERC20(DXB).balanceOf(address(this));\n        \n        uint _halfBalance = _balanceOf.div(2);\n        teamVault[teamWalletsList[0]]._balances = _halfBalance;\n        teamVault[teamWalletsList[1]]._balances = _halfBalance.div(2);\n        teamVault[teamWalletsList[2]]._balances = _halfBalance.div(2);\n        _isBalanceUpdated = true;\n    }\n    \n    /** \n     * @dev Calls getReward() function to get rewards.\n     * @return bool true\n    */\n    function getReward() public returns (bool) {\n        require((teamVault[_msgSender()]._isExist) || (_msgSender() == owner()), \"TeamVault :: getReward : invalid team vault\");\n        if((RewardPool(rewardPool).viewClaimReward(address(this)) == 0) && (teamVault[_msgSender()]._pendingReward == 0)) { return false; }\n        \n        address _contract = address(this);\n        \n        uint _bfBalance = _contract.balance;\n        \n        RewardPool(rewardPool).withdrawReward();\n        \n        uint _newBalance = _contract.balance.sub(_bfBalance);\n        \n        if(_newBalance > 0){\n            uint _balance = IERC20(DXB).balanceOf(address(this));\n            uint _halfBalance = _balance.div(2);\n            \n            uint[3] memory _teamWalletDiv;\n            \n            (_teamWalletDiv[0], _teamWalletDiv[1], _teamWalletDiv[2])= (_halfBalance, _halfBalance.div(2), _halfBalance.div(2));\n        \n            uint currentSharePerBlock = getBNBValuePerShare(_newBalance,_balance);\n            \n            teamVault[teamWalletsList[0]]._pendingReward = teamVault[teamWalletsList[0]]._pendingReward.add((currentSharePerBlock.mul(_teamWalletDiv[0]).div(1e12)).div(1e18));\n            teamVault[teamWalletsList[1]]._pendingReward = teamVault[teamWalletsList[1]]._pendingReward.add((currentSharePerBlock.mul(_teamWalletDiv[1]).div(1e12)).div(1e18));\n            teamVault[teamWalletsList[2]]._pendingReward = teamVault[teamWalletsList[2]]._pendingReward.add((currentSharePerBlock.mul(_teamWalletDiv[2]).div(1e12)).div(1e18));\n        }\n        \n        if((teamVault[_msgSender()]._pendingReward > 0) && (_msgSender() != owner())){\n            uint _reward = teamVault[_msgSender()]._pendingReward;\n            teamVault[_msgSender()]._pendingReward = 0;\n            payable(_msgSender()).transfer(_reward);\n            emit rewardClaimed( _msgSender(), _reward);\n        }\n        return true;\n    }\n    \n    /** \n     * @dev Calls distributeTeamWallet() function to distribute tokens.\n     * @return bool true\n    */\n    function claimDXB() public returns (bool) {\n        require(teamVault[_msgSender()]._isExist, \"TeamVault :: claimDXB : invalid team vault\");\n        require((startTime != 0) && (startTime.add(timeLock) < block.timestamp), \"TeamVault :: claimDXB : Requires 180 days to pass\");\n        require(IERC20(DXB).balanceOf(address(this)) >= teamVault[_msgSender()]._balances, \"TeamVault :: claimDXB : insufficient balance to distribute\");\n        \n        uint _bal = teamVault[_msgSender()]._balances;\n        teamVault[_msgSender()]._balances = 0;\n        \n        _safeTransferDXB( _msgSender(), _bal);\n        return true;\n    }\n    \n    /** \n     * @dev Calls viewInvestorReward() function to distribute tokens.\n     * @param _teamWallet team wallet address\n     * @return uint reward\n    */\n    function viewTeamReward( address _teamWallet) public view returns (uint) {\n        uint _contractReward = RewardPool(rewardPool).viewClaimReward(address(this));\n        uint _balance = IERC20(DXB).balanceOf(address(this));\n        uint currentSharePerBlock = getBNBValuePerShare(_contractReward, _balance);\n        uint _ownShare = 0;\n        \n        _balance = _balance.div(2);\n        \n        if(_teamWallet == teamWalletsList[0]) _ownShare = _balance;\n        else _ownShare = _balance.div(2);\n        \n        uint rewardBNB = (currentSharePerBlock.mul(_ownShare).div(1e12)).div(1e18);\n        rewardBNB = rewardBNB.add(teamVault[_teamWallet]._pendingReward);\n        return rewardBNB;\n    }\n    \n    /** \n     * @dev Calls _safeTransfer() function to transfer tokens.\n     * @param _sender send address\n     * @param _amount send amount.\n    */\n    function _safeTransferDXB( address _sender, uint _amount) private {\n        IERC20(DXB).transfer( _sender, _amount);\n        emit teamWalletDiv( _sender, _amount);\n    }\n    \n    /** \n     * @dev Calls getBNBValuePerShare() function to get tokens.\n     * @param amount total bnb\n     * @param _balance DXB balance of team wallets.\n     * @return uint reward\n    */\n    function getBNBValuePerShare( uint amount, uint _balance) private pure returns (uint) {\n        return amount.mul(1e12).mul(1e18).div(_balance);\n    }\n}",
  "sourcePath": "/home/devel-mohan/dxB/contracts/TeamWallet.sol",
  "compiler": {
    "name": "solc",
    "version": "0.6.12+commit.27d51765.Emscripten.clang"
  },
  "schemaVersion": "3.3.4",
  "updatedAt": "2021-07-23T09:40:23.003Z",
  "devdoc": {
    "kind": "dev",
    "methods": {
      "claimDXB()": {
        "details": "Calls distributeTeamWallet() function to distribute tokens.",
        "returns": {
          "_0": "bool true"
        }
      },
      "getReward()": {
        "details": "Calls getReward() function to get rewards.",
        "returns": {
          "_0": "bool true"
        }
      },
      "owner()": {
        "details": "Returns the address of the current owner."
      },
      "renounceOwnership()": {
        "details": "Leaves the contract without owner. It will not be possible to call `onlyOwner` functions anymore. Can only be called by the current owner. NOTE: Renouncing ownership will leave the contract without an owner, thereby removing any functionality that is only available to the owner."
      },
      "transferOwnership(address)": {
        "details": "Transfers ownership of the contract to a new account (`newOwner`). Can only be called by the current owner."
      },
      "updatedDXB(address)": {
        "details": "Calls updateDXB() function to set DXB address.",
        "params": {
          "_DXB": "address of DXB."
        }
      },
      "viewTeamReward(address)": {
        "details": "Calls viewInvestorReward() function to distribute tokens.",
        "params": {
          "_teamWallet": "team wallet address"
        },
        "returns": {
          "_0": "uint reward"
        }
      }
    },
    "version": 1
  },
  "userdoc": {
    "kind": "user",
    "methods": {},
    "version": 1
  }
}